:020000040000FA
:06000000020A960201DA7B
:03002B000208D1F7
:030033000206EDD5
:030043000207862B
:0300530002010B9C
:03006B000206D3B7
:1000830002016F0101FF0503015C105C105C105C51
:1000930010180F120F5C10D123000000006F230013
:1000A3000000000C0000000C00010400003C1200E2
:1000B3000000000000F61200000000000000000035
:1000C30000FFFF414C442042726F616463617374AB
:1000D300000101010024050000007505E803640028
:1000E3006400B801020200080000050207051E02B1
:1000F300051E0A03B80B020102F1FF021F00E0070D
:100103009651180002020612C0E074F21203F3A221
:10011300AFE433FED2AFE5A7FFE5A1F5085F5410C6
:10012300600612197475A1EFE5085F5408600812A0
:10013300197A75A1F7802BEFA2E0C0D0E508A2E001
:1001430092F01209D3158182F05017906198E0F86C
:1001530090084FE0C398A2D265D0335002E8F075FF
:10016300A1FEEEA2E092AF7F01020452C0E074F25E
:100173001203F3A2AFE433FED2AF9061A4E0F875AB
:100183009B00E59158540860087591F71219C280D5
:100193002AE59158541060087591EF1219C8801B15
:1001A300E8A2E0C0D0E591A2E092F01209D3158154
:1001B30082F05007E0C2E0F0121B0C9061A3E0F85C
:1001C300E5E9585404600E121AE275E9FB90619355
:1001D300E0A2E640F2808BC0E074F21203F3A2AF18
:1001E300E433FED2AF9061A5E0F8E5BF5854046054
:1001F3000675BFFB121B24020165C3E498F8E4995A
:10020300F912023E8026C3E49AFAE49BFBE920E755
:10021300E912023EE498F8E499F922C3E498F8E479
:1002230099F912023EE498F8E499F9C3E49AFAE4DE
:100233009BFB22EB20E7CFE920E7E0B90010BB00EE
:1002430008E88AF084F8AAF022E4FBC8FA22EB70EB
:10025300227B10C833C8C933C9335007C39AC3DBE1
:10026300F280069A50012ADBEAC833F4C8C933F492
:10027300C9FA2275F008E4C833C8C933C933C99A27
:10028300C99B5004C92AC93BD5F0ECFBC833F4C859
:10029300E4C9FA22080808EAC0E0EBC0E086F0E708
:1002A300A4FA180986F0E7A42AFA180986F0E7A445
:1002B3002AFA180986F0E7A42AFA1986F0E7A4FBBC
:1002C300E5F02AFA190886F0E7A42BFBE5F03AFAE1
:1002D300190886F0E7A42BFBE5F03AFA181809860B
:1002E300F0E7A4C5F02BFBE43AFA1908E7C5F0C61A
:1002F300A426F6E5F03BFBE43AFA1886F0E7A4F609
:10030300E5F00826F6E43B08F6E43A08F6D0E0FB0D
:10031300D0E0FA22E4CFC0E0E4CEC0E0E4CDC0E018
:10032300E4CCC0E075F020C3E633F608E633F60804
:10033300E633F608E633F6181818EC33FCED33FD14
:10034300EE33FEEF33FFC3EC9709ED9709EE970900
:10035300EF97191919400FFFEC97FC09ED97FD0969
:10036300EE97FE191906D5F0BEECF709EDF709EE85
:10037300F709EFF7191919D0E0FCD0E0FDD0E0FE42
:10038300D0E0FF222518C582C0E0E51934FFC583FC
:10039300C0E0E518C3958224F810AF08858319855A
:1003A30082188008858319858218D2AFCEF0A3E521
:1003B30020F0A37808E608F0A3DEFAEFF0A3E581C6
:1003C30024FAF8E608F0A3E608F0A3E608F0A30889
:1003D30008E608F0A3E608F0A315811581D0E0FE36
:1003E300D0E0F8158115811581E8C0E0EEC0E02268
:1003F300C0D02518C582C0E0E51934FFC583C0E02D
:10040300E518C3958224F310AF08858319858218F4
:100413008008858319858218D2AFC8F0A3E9F0A3B9
:10042300EAF0A3EBF0A37908E709F0A3D8FAECF01C
:10043300A3EDF0A3EEF0A3EFF0A3D0E0F0A3D0E0A0
:10044300F0A3D0E0F0A3E520F0A3E5F0F0A322852C
:100453001983851882E0C0E0A3E0F9A3E0FAA3E0E2
:10046300FBA37808E0F608A3DFFAE0FCA3E0FDA312
:10047300E0FEA3E0FFA3E0C0E0A3E0C0E0A3E0F55B
:10048300D0A3E0F520A3E0A3F5F010AF088583190E
:100493008582188008858319858218D2AFD082D0CF
:1004A30083D0E0F8D0E032120AF8B900030204EC7A
:1004B300E490030178A6790A8002F0A3D8FCD9FA64
:1004C300900CA6AA82AB839000867886790180156A
:1004D300E493A3AC82AD838A828B83F0A3AA82AB1D
:1004E300838C828D83D8E9D9E77582F475838C7404
:1004F300031208497582D075831D7400120849E8F8
:100503000375F0108E1A8F1B85821F85831E851835
:1005130082851983E0CEA3E0CF851F82851E83EBFE
:10052300C9EAC8EDCBECCAC3E833C8E933C9EA3337
:10053300CAEB33CBC3EA9EF51DEB9FF51CB3500406
:10054300AB1CAA1DEC33CCED33CDD5F0DAAE1AAF2C
:100553001B22D083D082ECC0E0EDC0E0E493A3FC87
:10056300E493A3FDED4C600D12062DEC24FFFCED8E
:1005730034FFFD80EFE493A3FCE493A3FDED4C6013
:100583000D120731EC24FFFCED34FFFD80EFD0E0CA
:10059300FDD0E0FCE493A3C0E0E493C0E02285191E
:1005A30083851882E0A3FEE0A3F5207808E0A3F694
:1005B30008DFFAE0A3FFE0A3C0E0E0A3C0E0E0A30C
:1005C300C0E0E0A3C0E0E0A3C0E010AF088582185C
:1005D3008583198008858218858319D2AFD083D08B
:1005E3008202084FD083D082E9C0E0E493A3C3869C
:1005F300F0C5F095F0F908E493A386F0C5F095F003
:10060300700BE493A3C3994005E9048002A3E47546
:10061300F002A42582F582E5F03583F583D0E0F975
:10062300E493A3C0E0E493C0E022C0E0C3E4939664
:10063300087401939618400FE493667008087401D8
:1006430093661870007019A3A3C3E493960874010A
:10065300939618A3A3400DD0E0D0E0D0E00205911B
:10066300A3A3A3A3A3A3D0E022D083D082C5F0E4A5
:1006730093A3C5F0C395F0F5F0E493A3C395F040BD
:1006830005E5F0048001E475F002A42582F582E516
:10069300F03583F583E493A3C0E0E493C0E02274D0
:1006A30004800474028000CCC0E0EDC0E0E518C310
:1006B3009CCCAD1950011D10AF068C188D19800606
:1006C3008C188D19D2AF1207CBD0E0FDD0E0FC22FD
:1006D300C0E074F21203F3E589A2E1500312182477
:1006E300758900C2C57F01020452C0E074F212038F
:1006F300F3E58BA2E05003121824758B00C2E88047
:10070300E474028000CCC0E0EDC0E0E518C39CCCEB
:10071300AD1950011D10AF068C188D1980068C1869
:100723008D19D2AF1207A9D0E0FDD0E0FC22C0E0C2
:10073300C0F088F0E493667008087401936618703B
:1007430000A8F0A3A3700BD0F0D0E0D0E0D0E0027B
:100753000591A3A3D0F0D0E022D083D082CCC0E017
:10076300E493A3600612082A1470FAE493A36006C4
:1007730012091B1470FAD0E0FCE493A3C0E0E493E5
:10078300C0E022C0E074F21203F3A2AFE433FED25E
:10079300AFC2C0E5D1A2E450031218EAEEA2E09280
:1007A300AF7F01020452CAC0E0E493A3C582CCC563
:1007B30082C583CDC583F0A3C582CCC582C583CD55
:1007C300C583DAE5D0E0CA22CAC0E0E0A3C582CC83
:1007D300C582C583CDC583F0A3C582CCC582C5833D
:1007E300CDC583DAE6D0E0CA227009080808226082
:1007F30016181818C6C333C608C633C608C633C688
:1008030008C633C6D5E0EA22C008C3E096F5080857
:10081300A3E096420808A3E096420808A3E09645A1
:10082300087001D3D00822C0E0E493A3D39C5010F6
:10083300E493A3C39C400AD0E0D0E0D0E002077960
:10084300A3A3A3D0E022C09FF59FE473D09F22D03F
:1008530083D082C09FE493C0E0740193C0E074022C
:1008630093F59F227404800A740380067402800245
:100873007401C0E0F404120882D0E0120AD32225E6
:1008830018F58210AF08F518400215198008F518FD
:1008930040021519D2AF85198322BB0102E722C09A
:1008A30082C08389828A83BB0003E08002E493D001
:1008B30083D08222C0D0251810AF08F51850020546
:1008C300198008F51850020519D2AFD0D022C0E024
:1008D300C0D0E8C0E0E5A8D2AFC2C7A2E792AFD0CC
:1008E300E0F8D0D0D0E0326016080808C6C313C6BB
:1008F30018C613C618C613C618C613C6D5E0EA220F
:10090300C3E0C696F608A3E0C696F608A3E0C6962B
:10091300F608A3E0C696F622C0E0E493A36C700940
:10092300D0E0D0E0D0E0020779A3A3D0E0222518DD
:1009330010AF08F518400215198008F51840021584
:1009430019D2AF22E76670100809E766700A080932
:10095300E76670040809E76622E066701008A3E002
:1009630066700A08A3E066700408A3E06622C3E089
:100973009608A3E09608A3E09608A3E096A2D265A2
:10098300D03322C3E096F008A3E096F008A3E096E4
:10099300F008A3E096F022E026F008A3E036F00882
:1009A300A3E036F008A3E036F022E627F60809E6CE
:1009B30037F60809E637F60809E637F622E026F6A1
:1009C30008A3E036F608A3E036F608A3E036F622DD
:1009D300C0E0E8C0E0E58124FCF8E6A2E7D0E0F857
:1009E300D0E022E647F60809E647F60809E647F6A7
:1009F3000809E647F622E657F60809E657F6080916
:100A0300E657F60809E657F622E056F608A3E0563D
:100A1300F608A3E056F608A3E056F622E056F008DF
:100A2300A3E056F008A3E056F008A3E056F02270C6
:100A33000422600D18C6C333C608C633C6D5E0F416
:100A43001822E4C396F608E496F608E496F608E45A
:100A530096F622600D08C6A2E713C618C613C6D5BC
:100A6300E0F322C6F4C608C6F4C608C6F4C608C630
:100A7300F4C622C3E7960809E7960809E79608092A
:100A8300E79622C3E09608A3E09608A3E09608A39E
:100A9300E0962275D0007581407518017519030021
:100AA3000204AAE0F608A3E0F608A3E0F608A3E030
:100AB300F622600C08C6C313C618C613C6D5E0F4E5
:100AC30022E6F008A3E6F008A3E6F008A3E6F02286
:100AD300CAC0E0E6F0A308DAFAD0E0FA22E0FAA30B
:100AE300E0FBA3E0FCA3E0FD22EAF0A3EBF0A3EC20
:100AF300F0A3EDF022E5C754F84401F5C7790122CC
:100B03002518F582E43519F58322C2AF75D69F0205
:100B13000000221208524DB10112085244B20112D0
:100B2300085293B401120852E6B50112085289B66D
:100B330001120852D4B701120852F2B70112085237
:100B4300595E001208526B5E00120852BD5E00121D
:100B530008521E5F00120852A85F001208524C6030
:100B630000120852A06000120852B9600012085225
:100B7300DF60001208521A61001208525E6100120F
:100B83000852856100120852D6610012085286622B
:100B9300001208523E630012085206640012085203
:100BA300E364001208526965001208527865001266
:100BB30008528365001208528C66001208529D6623
:100BC30000120852136700120852A5670012085258
:100BD300FD6700120852C36800120852F46800123D
:100BE3000852396900120852466900120852DA6A3B
:100BF300001208523D6C00120852596D001208523F
:100C0300C36F00120852CE6F00120852D86F001241
:100C13000852E36F00120852ED6F00120852F76F8B
:100C2300001208520270001208520D70001208528E
:100C33003E70001208526270001208528670001251
:100C43000852EB70001208522F71001208524B71B8
:100C530000120852C27100120852FA7100120852AF
:100C6300467200120852A3720012085285740012D1
:100C730008520B7500120852DC7500120852EC780A
:100C8300001208524179001208526D79001208527D
:100C9300B97A00120852097B001208525E7B0012D7
:100CA30008525F7C00120852F77C00120852797DCB
:100CB30000120852197E00120852A426001208528C
:100CC300DD2600120852B72800120852F628001237
:100CD3000852402900120852E52900120852442AFA
:100CE30000120852782A00120852E52A001208520C
:100CF300022C001208520A2D00120852A02D0012D5
:100D03000852E730001208529031001208526C3238
:100D130000120852CD3200120852EA330012085270
:100D2300143600120852CB3600120852D536001280
:100D33000852083700120852CF37001208526A3897
:100D430000120852CF3800120852F8380012085225
:100D53001A3900120852493B00120852203C001273
:100D63000852643C00120852D13C001208528C3DD8
:100D730000120852BE3D00120852023E00120852F1
:100D8300353E001208528A3E00120852DF3E00121E
:100D93000852733F00120852D53F001208523D40DB
:100DA30000120852E64100120852CE4200120852C5
:100DB3001044001208523E4600120852FE4600122A
:100DC30008522D4900120852D049001208520E4A07
:100DD30000120852BA4B00120852CE4B00120852AE
:100DE300D84B00120852024C001208520E4C00124B
:100DF30008522D4C00120852E44C00120852234DA5
:100E0300001208522D4D00120852E14D00120852F3
:100E1300E04E00120852D94F0012085276500012C9
:100E230008521851001208522F51001208526651ED
:100E330000120852845100120852C851001208527D
:100E4300ED5100120852D352001208523F530012C0
:100E53000852B95300120852C854001208520756D8
:100E63000012085269560012085223570012085202
:100E73004657001208521A580012085265580012B9
:100E83000852A75800120852FE580012085235594A
:100E9300001208526359001208529C59001208525A
:100EA300C15900120852495A001208526C5C0012D0
:100EB3000852CB5C001208525F5D00120852CB5DF2
:100EC300001208521F5E001208529BC00312085200
:100ED300DAC00312085237B90112085291B901124C
:100EE3000852EDB90112085239BA0112085254BA24
:100EF3000112085285BA01120852A2BA011208520D
:100F0300AEBA0112085222BC011208523BBC0112B4
:100F13000852A2BC01120852B5BC01120852C3BC4C
:100F23000112085277BD011208525BBE011208522A
:100F330061BF01120852E7BF01120852F1BF01124B
:100F430008525EC00112085275C001120852A7C0B0
:100F530001120852E0C0011208520AC101120852DC
:100F63006BC1011208528BC101120852A9C10112AF
:100F73000852EFC10112085215C30112085262C38D
:100F83000112085291C30112085207C401120852F8
:100F93002FC40112085268C40112085276C4011208
:100FA3000852CEC4011208521DC5011208525CC575
:100FB300011208528CC501120852B8C50112085219
:100FC300C3C501120852E1C501120852A3C601129A
:100FD3000852ADC601120852E8C601120852FEC6F5
:100FE3000112085207C7011208525CC701120852C6
:100FF30070C7011208527EC80112085291C801122B
:101003000852A6C80112085248C901120852CBC996
:101013000112085289CA0112085294CA01120852D5
:10102300BACB01120852D6CB0112085228CC0112B6
:10103300085267CC011208527CCC01120852BECC74
:10104300011208520BCF0112085289CF0112085224
:10105300FCCF011208521ED20112085236D20112DD
:10106300085239D20112085245D20112085259D2FC
:101073000112085261D20112085294D2011208528D
:1010830044D301120852BAD3011208522DD40112CB
:101093000852E1D40112085296D501120852B5D56F
:1010A3000112085255D60112085261D60112085294
:1010B3008CD6011208528FD601120852F9D60112AA
:1010C300085221D801120852F9D80112085284D9C2
:1010D300011208529DDA011208525ADB011208521A
:1010E30093DB01120852C4DB0112085264DC0112C3
:1010F300085294DC011208526FDD0112085208DE17
:101103000112085293DE0112085244DF0112085201
:10111300C6DF01120852F8DF0112085239E001124A
:10112300085220C80212085285C802120852C2C8C7
:101133000212085211C90212085227CB0212085296
:101143000ACD0212085274D002120852AFD0021212
:101153000852D1D00212085234D10212085268D177
:10116300021208528BD102120852B8D1021208524D
:1011730014D2021208525BBC02120852D9BC0212EA
:1011830008520FBD021208527BBD02120852EEBE76
:10119300021208520ABF021208524FBF021208522B
:1011A300DDBF0212085236C00212085263C1021296
:1011B300085275C202120852D2C2021208523EC32A
:1011C300021208529FC302120852E0C302120852CD
:1011D3008DC4021208529FC502120852CAC50212D8
:1011E300085215C6021208525CC602120852EEC615
:1011F30002120852A9C7021208528FAF03120852F3
:10120300BFAF0312085214B00312085230B60312D0
:10121300085241B60312085292B603120852D7B6C7
:101223000312085281B7031208520DFF011208522C
:10123300FCB20312085254B403120852BCF4011254
:10124300085261F50112085281F501120852A1F505
:1012530001120852B5F5011208520DF60112085297
:101263003DF601120852BEF70112085264F801124A
:10127300085246F90112085297F901120852DAF995
:10128300011208521DFA0112085283FA0112085280
:10129300A4FA0112085230FB0112085261FB011239
:1012A3000852D5FB0112085283FD011208525DFE5C
:1012B300011208529FFE01120852F9FE0112085250
:1012C300B7AD03120852D8AD031208520EAF031282
:1012D300085238AF031208526C9A03120852E79A65
:1012E30003120852F29A03120852139B0312085274
:1012F3001EB00212085221B002120852DBB00212D1
:10130300085206B1021208524DB10212085272B1CC
:101313000212085293B102120852C7B102120852C4
:1013230000B20212085229B30212085260B3021229
:10133300085280B3021208521BB402120852E0B4DE
:101343000212085217B5021208528CB60212085242
:101353002FB70212085228B80212085251B80212CB
:101363000852A5B8021208526BB90212085299B971
:10137300021208522EBB02120852AFBB02120852CD
:10138300E2BB0212085260D2021208526AD202125F
:101393000852B6D20212085224D30212085245D37D
:1013A300021208525CD3021208520CD402120852E1
:1013B300A0D602120852A9D60212085208A8011296
:1013C300085225D7021208528CD7021208521DD890
:1013D300021208525FD802120852A9D80212085208
:1013E30008D90212085299D902120852D8D9021206
:1013F300085217DA021208524CDA021208525EDA65
:101403000212085270DA021208528FDA02120852DC
:1014130098DA021208524EDB0212085231B101125D
:10142300085258FB021208522BFC0212085245FCC8
:101433000212085256FC021208526BFE02120852A4
:101443008AFE0212085285A903120852BBA903128D
:10145300085204AA0312085254AB031208526EE056
:1014630001120852ADE101120852E9E101120852DA
:10147300A8E301120852D1E30112085264E60112F3
:101483000852A8E60112085231E801120852C9E8CD
:101493000112085231E901120852D2E9011208522D
:1014A30014EA0112085254EA01120852DFEB011246
:1014B30008524FED0112085274EF01120852A2EFC5
:1014C30001120852C9EF01120852D2EF0112085259
:1014D3002DF001120852C0F001120852DEF301127E
:1014E30008525FF401120852E3FF0212085250C07F
:1014F30003120852F493031208520794031208527A
:10150300A49403120852DF9403120852FA940312AC
:1015130008521F95031208526495031208529595B9
:1015230003120852C695031208524C97031208522D
:10153300F9B8031208522FB9031208524BB9031218
:1015430008528DB9031208529DB90312085232BAD8
:10155300031208523CBA03120852A2F602120852AE
:1015630058F70212085208F80212085248F80212F9
:101573000852E7F802120852DFFA021208528FA04B
:1015830002120852E7A00212085291A10212085255
:1015930039A20212085296A202120852EFA20212B4
:1015A300085203A302120852CDA40212085248A5FE
:1015B3000212085272A5021208522FA702120852F1
:1015C3004AA70212085299A702120852AFA70212A1
:1015D3000852BCA702120852F0A70212085206A82A
:1015E300021208528CA8021208529BA80212085237
:1015F300F4A8021208524EA9021208529CA9021220
:101603000852A6AA0212085228AD02120852C2AD0D
:101613000212085204AE0212085299AE0212085284
:10162300B6AE02120852B9AE02120852BCAE021292
:1016330008522FAF021208524AAF0212085276AF75
:1016430002120852B1AF02120852B4AF021208528A
:10165300C7AF02120852EEAF021208527CBF031248
:10166300085288BF03120852C2BF03120852BE9029
:1016730002120852E99002120852B591021208525E
:101683003A9202120852A39202120852EF920212E5
:1016930008526E93021208520094021208528C945C
:1016A30002120852CE94021208523A9902120852B8
:1016B300BA9A02120852F99A02120852C29B0212F3
:1016C3000852769C02120852269E02120852B29EBB
:1016D30002120852008002120852BA800212085203
:1016E3002C81021208523B8102120852B581021268
:1016F30008522482021208522E8302120852578380
:1017030002120852F7830212085245840212085249
:10171300B58402120852E98502120852C5860212E4
:101723000852368702120852B3880212085275898A
:1017330002120852108A021208526B8A02120852CD
:10174300D68A02120852DA8B021208529B8D0212B9
:1017530008523A8E02120852AC8E02120852698F56
:10176300021208523B9D031208528F9D0312085226
:10177300E79D03120852329E03120852949E0312ED
:1017830008522D9F03120852959F03120852A19FDE
:10179300031208522FA70312085260A7031208521C
:1017A3001AA80312085280A803120852F1A80312C0
:1017B30008527F8D031208520B8F031208527BBD10
:1017C300031208528CBD031208522CBE0312085296
:1017D30044B10312085252B1031208522FC203122A
:1017E3000852E6BE03120852F6BE0312085211BF96
:1017F3000312085272BF0312085279BC0312085233
:10180300FEBC0312085262BD0312085267BB0312E7
:10181300085289BB03120852F3BB03120852FEBBE2
:101823000312085242BC03120852F3E40212085294
:1018330001E50212085242E50212085263E5021260
:101843000852EDE5021208520FE6021208527BE637
:101853000212085296E602120852B1E60212085228
:10186300BBE602120852C5E602120852D8E602127B
:101873000852F1E6021208528DE70212085249E8B3
:1018830002120852C0E8021208523AE90212085240
:1018930086E9021208522CEA0212085208EB0212DD
:1018A30008526A8903120852788903120852F2898E
:1018B30003120852D68A031208528F8C031208525D
:1018C300EFC103120852B2EC021208521FED0212CA
:1018D3000852E0ED0212085250EE0212085259EF7C
:1018E30002120852D1F00212085235F102120852C4
:1018F3008AF10212085293F102120852A2F1021263
:101903000852B5F102120852CBF102120852D4F177
:1019130002120852E7F1021208523CF20212085274
:1019230038F4021208526AF4021208528CF40212BA
:101933000852A5F402120852BEF402120852C8F566
:101943000212085263F60212085298B703120852A1
:10195300BCB703120852D5B70312085208B80312D2
:10196300085239B80312085267B803120852C9B8AB
:1019730003120852D8B803120852E2B803120852ED
:10198300EFB803120852DC9F0312085202A003129D
:1019930008523FA0031208524EA0031208526DA032
:1019A30003120852D5A003120852DEA003120852F4
:1019B3003DA10312085261A10312085220A203128F
:1019C30008522DA2031208523EA20312085228C144
:1019D3000312085245C103120852388003120852F9
:1019E300968103120852A38103120852B68103128F
:1019F3000852D58103120852EB8103120852FF816A
:101A030003120852748203120852D9820312085235
:101A13008983031208525E84031208526E840312F0
:101A230008527D84031208524DBE0312085271BE40
:101A33000312085299BE03120852C1BE0312085280
:101A43006CA20312085293A203120852B4A2031207
:101A5300085219A303120852D2A403120852EBA48A
:101A630003120852F7A4031208520BA503120852DB
:101A730029A50312085233A5031208523DA50312E8
:101A8300085250A503120852A3A503120852DCA55D
:101A9300031208520BA60312085259A60312085246
:101AA300A8A603120852C3A603120852CDA6031216
:101AB3000852DEA60312085224A703120852FFBFDE
:101AC30003120852B7DB02120852E1DB021208527A
:101AD300FDDB0212085210DC0212085226DC02124D
:101AE300085283DC02120852B6DC02120852F2E0FA
:101AF3000212085218E2021208524BE20212085272
:101B030097E202120852C3E302120852EBE30212F5
:101B1300085200E40212085210E40212085254E47C
:101B230002120852B5E402120852C5E40212085226
:101B3300CC7E00120852E77E00120852107F00127A
:101B430008522A7F001208524F7F001208526E7FFC
:101B530000120852867F00120852B47F0012085206
:101B6300CE7F00120852E4C003120852749003128D
:101B730008527B9003120852879103120852B791BF
:101B830003120852DD910312085200920312085205
:101B93002292031208525C9203120852C292031259
:101BA3000852FB920312085247930312085274938C
:101BB30003120852949303120852A3B40312085257
:101BC300B5B403120852A0B5031208522DB603127E
:101BD300085254BA03120852C6BA0312085204BB7D
:101BE3000312085245BB03120852B7AB0312085243
:101BF300E2AB03120852F6AB0312085288AD03128C
:101C03000852599703120852759703120852C49742
:101C130003120852E0970312085211980312085254
:101C23002198031208520D990312085217990312AF
:101C33000852249903120852349A03120852489AFC
:101C430003120852519A03120852B684031208521F
:101C5300FB88031208520089031208529AC1031227
:101C6300085264C103120852C7C10312085211C2B9
:101C7300031208525CA701120852ADA501120852C3
:101C830068A301120852EFA20112085296A2011290
:101C930008522AA20112085201A201120852F49F0B
:101CA30001120852C09F011208528D9F011208525F
:101CB300719F01120852979E011208524F9E011202
:101CC3000852849C01120852049C01120852019C80
:101CD30001120852089B01120852D69A01120852A7
:101CE300139A011208523E9801120852CF9701121B
:101CF3000852A19701120852C1B00112085278B0DC
:101D03000112085230B0011208526EAF011208528C
:101D1300E1AE011208529E97011208528B970112ED
:101D23000852239701120852129701120852D4AE97
:101D330001120852F39501120852BD95011208527F
:101D4300809501120852219501120852E2AB01124B
:101D530008528EDB02120852F09401120852AB9122
:101D6300011208529C90011208522B900112085242
:101D7300F08F01120852BB8F01120852AF8F01126C
:101D830008520F8F01120852568E01120852298CE5
:101D930001120852B58901120852738901120852BF
:101DA3003E8801120852F387011208522587011257
:101DB30008527C8601120852188601120852528674
:101DC3000112085234A901120852FCD60200000085
:101DD30080FBE4730000000000000000000000002E
:101DE3000000000010101010101000003030000030
:101DF3000014285000000000000000000000000054
:101E0300002828FC284850FC5050000000001038DF
:101E13005454301814545438100000000044A8A837
:101E2300B0541A2A2A44000000000020505060AC2D
:101E3300A898927C000000606020C00000000000B1
:101E4300000000000004080810101010101008080B
:101E53000400000040201008040810204000000087
:101E63000000001010D63838D61010000000000013
:101E730000101010FE101010000000000000000001
:101E8300000000000000606020C0000000000000AF
:101E9300FC00000000000000000000000000000043
:101EA3000000606000000002040404080810102011
:101EB300202040000000003048848484848448301B
:101EC300000000000010701010101010107C0000B3
:101ED30000000038444404081020447C0000000043
:101EE300003844441804044444380000000008083F
:101EF30018284848887C081C00000000007C4040EB
:101F030078440444443800000000003C4480B8C4D2
:101F13008484847800000000007C4448081010107A
:101F2300101000000000007884844878848484784A
:101F33000000000000788484848C740488F000001E
:101F430000000000003030000000303000000000CE
:101F53000000000010000000001010200000040822
:101F6300102040201008040000000000000000FCC6
:101F73000000FC00000000000000402010080408DE
:101F830010204000000000007884848408101000B2
:101F93003030000000000038449AAAAAAAB4423C98
:101FA30000000000001010282828384444EE0000E8
:101FB300000000F844447844444444F8000000001E
:101FC300003C44848080808044380000000000F09E
:101FD30048444444444448F00000000000FC4440AA
:101FE3004878484044FC0000000000FC4240487828
:101FF300484040E000000000003C448480808E8420
:1020030044380000000000EE4444447C444444EE61
:1020130000000000007C101010101010107C000055
:102023000000007C101010101010101090E0000041
:1020330000EE44485070484844EE0000000000E0C1
:1020430040404040404044FC0000000000EE6C6C07
:102053006C54545454D60000000000EE646454548D
:10206300544C4CE400000000003048848484848491
:1020730048300000000000F844444478404040E009
:102083000000000000304884848484B448380C0085
:10209300000000F844447850484844E6000000003B
:1020A300003C44402018040444780000000000FE73
:1020B30092101010101010380000000000EE44447D
:1020C3004444444444380000000000EE44442828BB
:1020D300282810100000000000D6545454546C28D3
:1020E30028280000000000EE44282810282844EE89
:1020F3000000000000EE44282810101010380000E3
:102103000000007C88081020204044FC0000001CD4
:10211300101010101010101010101C000070101070
:10212300101010101010101070000070101010100C
:102133001010101010107000001028000000000094
:10214300000000000000000000000000000000008C
:10215300000000FE00606020C000000000000000DE
:10216300000000000000000038441C24443E00002E
:10217300000000C04040784444444478000000001C
:10218300000000003C444040443800000000000CC4
:1021930004043C444444443E0000000000000000AA
:1021A30038447C40443800000000001C2420F82000
:1021B3002020207800000000000000003C48483048
:1021C30040784438000000C040405864444444EE22
:1021D300000000000010000070101010107C0000C0
:1021E300000000080000380808080808087000000C
:1021F30000C040405C48507048EC00000000007094
:10220300101010101010107C0000000000000000DF
:10221300F854545454D60000000000000000D86461
:10222300444444EE000000000000000038444444ED
:1022330044380000000000000000F844444444789F
:1022430040E00000000000003C444444443C040ED1
:10225300000000000000EC30202020F80000000007
:10226300000000003C4430084478000000000000F7
:1022730010107C101010100C000000000000000073
:10228300CC444444443E0000000000000000EE44FF
:10229300282828100000000000000000D6545454E1
:1022A30028280000000000000000DC48303048EC23
:1022B3000000000000000000EE442828101020E079
:1022C3000000000000007C481010247C0000101067
:1022D30010101010101010101010101000013636CE
:1022E30001010001020100010301000104010606CE
:1022F30005020000070100340801000F0904010171
:102303000D0100FF0E08000017020000190100FF75
:102313001A0100011B0100FE1C0100081D02000040
:102323001F01000120010001210200002301000F11
:10233300240200002601000127010008280200FFF3
:102343002A0100072B0102402C0100002D0100018E
:102353002E0100012F0100FF30010B1C310800008A
:102363003A0100083B01000F2F0100000103710334
:102373000103010301030103010322030203010318
:102383001003000300030003000300030003000322
:1023930042030003240306030003000304031203A0
:1023A300250323032503230304030403000300037A
:1023B3000003440300030003230300036503210018
:1023C3003503810300030503000300030003030037
:1023D30071003001600011007000310220035004CD
:1023E300800010006100000014006300730072009D
:1023F3006200430000001300060000000000040018
:102403001200000000000000000004000400370078
:1024130037003C024400000000000000000065009B
:10242300000035008100000005000000830000006B
:1024330001017101010101011101010131010101D9
:1024430001018001100161013B001400630173016C
:102453007201620143010001130106013D013500D0
:102463000401120100010001000100010401040143
:10247300330133013C014401320136000001000104
:10248300650100013500810100010501820183011D
:1024930000010302710230016002110270020102A5
:1024A300020202028002100261023A00410063024A
:1024B3007302720262024302000213023800000236
:1024C30000020402120200020002000200020402DF
:1024D3000402370037003C024402000239000002C4
:1024E3000002650200023502810200020502820237
:1024F30083020002C9EEDBDACAD0B0B2C1AAB5C208
:10250300BFC6BCBCD3C3BBA7B5C7C2BCD5CABAC5BB
:10251300C3DCC2EBC8B7B6A8C8A1CFFBD7A8D2B556
:10252300D7A8D7A2CEDECFDFCDA8D1B6B3CFD0C543
:10253300C1A2D7E3B4B4D0C2D6C2D4B6C7BFB4F332
:10254300D4ADA3BA0036000100060000000F00005E
:10255300000000000000000000000003FFFF000077
:102563000403FFFF0000FFFF0FF4010005C4040391
:1025730020000100030B0000000000000000030125
:102583000F010010170200861603008C1604009238
:1025930016050098160600A4161100BC161400C2F6
:1025A300161500B616FFFF000003EAF5E5D5D5C5FD
:1025B300B5A5959585857575656555554545353538
:1025C3002525151505720FA20F780F7E0F9C0F900E
:1025D3000F8A0FA80FAE0FB40FC00F840F6C0F66D6
:1025E3000F0A3E0D02080D051A0D070E0D0CEA0C1D
:1025F3000DFC0CFF000000160F00000B150B020072
:1026030002220F320000065C106E1074103C0F7A29
:1026130010360F420FBC10DA10E010C210CE10C8F3
:102623001000011916181616152303000C0E020BC1
:10263300040B0A0708000F00034948424D181725E9
:10264300050200383C3E363B3B352B432C303016DD
:10265300181920231A1C1E30303017181921301B6B
:102663001D1F30960FBA0FD410C60FCC0FB01080B9
:1026730010861092108C100204020101010109025C
:1026830000000000000000BE040A0E001500040054
:10269300280008050C0A030908FF1E1E0F04041076
:1026A3000C74F7120387E99003B0F0900365E4F02C
:1026B300121BBA9003B5E4F0A3F09003B1F0A3F0BA
:1026C300120E76121BC0900334E4F0A3F090269F01
:1026D30093FA7902121C3802533A74F2120387EA0E
:1026E300FEEBFF548060699003B0E0F91213C88ACF
:1026F300088B09EA4509604F7C0080010CEC75F0FA
:1027030003A4F8A9F074E428F582742539F583E469
:1027130093F4602CE493F88508828B83E06870DC83
:10272300AA08EC75F003A4F874E528F5827425393A
:10273300F583E493C0E0740193F583D082121DD531
:10274300AA08AB09121DCAEEFAEF6480FB0228AA9D
:10275300EF5420601D120D988A088B09EA45096021
:102763000A120CFCAA08AB09121DCAEEFAEF642088
:1027730080DAEEA2E0501A90036AE0640F700B79DE
:1027830000120CC6E960031228ADEE6401FAEF8073
:10279300BB54207003022878750C00123D7F8B090F
:1027A300EA450970107C027D007A207B009003B01B
:1027B300E0F91215127C0079047A007B00120D7483
:1027C3008A088B098018850882850983A3A3A3A39C
:1027D300A3A3A3A3A37401F0850A08850B09E50845
:1027E3004509606D7C007904AA08AB09120D748A4F
:1027F3000A8B0B750C01E5082404F8E509123B2349
:1028030024FFF0A3E034FF125E1670CC85088285A6
:102813000983A3A3A3A3A3A3A3A3A3A3E064017016
:10282300A5850882850983A3A3A3A3A3A3E05404D6
:102833007094850882850983A3A3A3A3A3A3A3A359
:10284300A37406F07AB78508828509831229D98093
:1028530087120D447C0079017A007B00120D748B82
:1028630009EA45097009E50C70057A20124CD9EE86
:102873006420022790EF5402600B120E70EEFAEF01
:10288300640202274FEF54046019124E70124D90E8
:1028930079019003631250F4120C0CEEFAEF640406
:1028A30002274F7A007B00022AE0900CFF12317757
:1028B300120CDE22C082C08374EA120931851882A9
:1028C300851983AA82AB83794B121C0E7408120BF1
:1028D300037402F07409120B03AA82AB83795012BA
:1028E3001C0E7413120B03E41252C3121C2C741625
:1028F30002429D74F712038774E1120931EAFEEB79
:10290300FFEE4F6033851882851983AC82AD831245
:102913000DBC7406120B03E0601E7417120B03E068
:10292300FD7401120B03E0FCEEFAEFFB7900120BCE
:1029330034E9600479A48002790002533574F612F5
:102943000387EAFEEBFF8E828F83A3A3A3A3A3A334
:10295300E05440601B1257B2122AA760067AFF7B2D
:10296300FF801A8E828F83123F29FAA3E0FB800334
:10297300120DE074FE6A700374FF6B60411257B26C
:10298300124D1D120E34E98E828F8360061229D2F6
:10299300E480051229D27401F07CCC7D0C8E828FE9
:1029A300831250F4121C32E9F5087015EE4F6009DA
:1029B3007901EEFAEFFB120D50A908024D4E75088E
:1029C300CDAA088E828F831229D9E960DF80EAE0DD
:1029D300240D1243F822E0240C1243F8E0F9120C00
:1029E300D82274F6120387E9FEEAFF7A0F7B0012FE
:1029F30013B6EA4B60198A828B83740CF0EEA3A39F
:102A0300F0EF8A828B83A3F0124D797900802FEE49
:102A1300F9120D7A8A088B09A808A909E849601CEC
:102A230088828983A3A3A3A3A3A3A3A3A374061246
:102A33005A3DE0F9120C90EEF9120D567910024D41
:102A43004EC082C08390036AE0640F7014EA4B6047
:102A530010900365E064086005E064047003122AC3
:102A6300670242C7EAFCEBFD7A017B009003B0E00A
:102A7300F912150C22C082C0837900EA241DF58265
:102A8300EB123F2624FD600B14600824FD60042430
:102A9300FD7001090242C78E828F83A3A3A3A3A360
:102AA300A3A3A3A3122AAB22123F6EFB120E34E997
:102AB300228E828F83A3A3A3A3A3A3A3A3A3122AD8
:102AC300AB6402228E828F83A3A3A3A3A3A3A3A396
:102AD300A31242BE900356E068221208B77F060293
:102AE30005A174F412038774FD1209318A088B0956
:102AF3008A828B83A3A3E0F9120D7A8A0A8B0BAE29
:102B03000AAF0BEE4F7003022BEC85088285098315
:102B1300A3E064F16030850882850983A3E064CD76
:102B23006024850882850983A3E0641A60188508F8
:102B330082850983A3E064E9600C850882850983A3
:102B4300A3E064E170087900120D50E9706C850808
:102B530082850983A3E0C0E07402120B03D0E01264
:102B630042A2EEF0A3EF1235CD851882851983AA10
:102B730082AB837005120BF48003120E1C740212D5
:102B83000B03E064E970338E828F83122BF8750A8E
:102B930001780A120873750AE9780A120873E508BE
:102BA300240CF582E5091230BF1235AAFCA3E0FD1F
:102BB3008A828B831235C41208B78E828F83A3A3B4
:102BC300A3A3A3A3A3A3A3E0640270108E828F83A5
:102BD300A3A3A3A3A3A3A3A3A37406F08508828539
:102BE3000983A3A3E0F9120D56120D44900D0312AD
:102BF30028B002317CE0F8A3E0F9E8FAE9FB22749B
:102C0300F4120387EAFEEBFF7508008E828F83A31D
:102C1300A3A3A3A3E060427508088E828F83A3A3B6
:102C2300A3A3A3A3A3A31241D18B0BEA450B60106B
:102C330075082C8E828F83A3A3A3A3A3E0D2E0F015
:102C43008E828F83A3A3A3A3A3E054036401600331
:102C5300022CEB430811022CEBEE2418123189608D
:102C630033EE241A123189700F122AC77003A3E0BE
:102C73006970757508228070EE241BF582EF122CA3
:102C8300F0241AF582EF1235D5EE24191257E61205
:102C93000C7E8054122AB47003750801122AC7707F
:102CA30003A3E0697006E508D2E1F508E5086015BD
:102CB3008E828F83A3A3E07006E508D2E58004E546
:102CC30008D2E6F508122A9A64017006E508D2E0F4
:102CD300F5088E828F83A3A3E0600D122CFE64019E
:102CE3006006E508C2E0F508A908023181123F1425
:102CF300122CF722E0FCA3E0FDEE22123F0E123F5E
:102D030046F9120E22E922C082C08379018A828B9E
:102D130083A3A3E0C394024001198A828B83A3A3F4
:102D2300A3A3E0C39402400279008A828B83A3A306
:102D3300A3A3A3A3A3A3A3E064F87003A3E0F46095
:102D4300458A828B83A3A3A3A3A3A3A3A3A3E06422
:102D5300F97003A3E0F4602E8A828B83A3A3A3A359
:102D6300A3A3A3A3A3E064FA7003A3E0F460178A08
:102D7300828B83A3A3A3A3A3A3A3A3A3E064FB7056
:102D830003A3E0F4700279008A828B83A3A3A3E0F8
:102D9300F8900353E068600279000242C774F012AE
:102DA300038774DE120931EAFEEBFF8E828F83A361
:102DB300A3A3A3E0600E900D01124D456006900D94
:102DC300011228B07403120B03AC82AD838E828F81
:102DD30083A3A3A3124DC7125600E9600F74031215
:102DE3000B03AA82AB83120CF6E970087901121B5C
:102DF300CC0230B4EE241B123F197410120B0312D1
:102E03004D907409120B03E06021741A120B03E056
:102E1300FD7404120B03E0FC8E828F831250F2794F
:102E230001120B34E96004790280C37403120B03AB
:102E3300AA82AB83120CF0E9F50A7409120B03E0C2
:102E4300702A90034DE060247422550A6422601CAA
:102E53007442550A644270CF7420120B031230D2AD
:102E6300600A7420120B031230CB70BBE9A2E65048
:102E7300417403120B03AA82AB83120CE4E97003BF
:102E8300022DEF7420120B03123F296403700F7499
:102E930020120B03A3124D37A3E0640D60147403D7
:102EA300120B03AA82AB83120E46E964017003027C
:102EB30030B4EE242C1230BC1233E07003A3E0696B
:102EC300701C75080078081208737808120873EEEE
:102ED300242E1257E61230D81235C41208B77409DB
:102EE300120B03E07003022F911230D81250F41228
:102EF3000E9A8A088B09EA4509700302302E74047E
:102F0300120B03E0F88E828F83A3A3E028F8A3E0DB
:102F13003400F9E8240D1230C38A828B83A3A3A360
:102F2300E068601CE88A828B83A3A3A3F09085D317
:102F3300120AE0850882850983A3A3A3A3120AECDE
:102F43007904E9120B031255DD2AF8A3E034008853
:102F530082F583A3AA82AB831213A48A0C8B0D8CF4
:102F63000E8D0F850882850983A3A3A3A3780C1272
:102F7300080B40030230B49085DB780C1209C0853E
:102F83000882850983A3A3A3A3780C120AC4900320
:102F930065E064046008E0640960030230B4E50A94
:102FA300A2E5400302306CEE242E1231898518828B
:102FB300851983F0EE242F123189C0E07401120BBE
:102FC30003D0E0F0EE2430123189C0E07402120B1A
:102FD30003D0E0F07414120B03E064017027740E45
:102FE300120B03123F1FEE2412123189687003A3E0
:102FF300E0697011740C120B03122AC17007741468
:10300300120B03E4F0EE24241230BC1206A2740463
:10301300120B03AC82AD837407120B03AA82AB833A
:10302300120BFA74041208B70230B49003AAE064D6
:10303300016003022F917420120B031230D2700926
:10304300E50AA2E65003022F917410120B03E0F479
:103053007003A3E0F4605AEEFCEFFD7403120B035C
:10306300AA82AB83120D028048A2E6504474201258
:103073000B03125103701A741A120B03E0640270EB
:10308300307403120B03AA82AB837900120E1080F3
:10309300207420120B031230CB7016741A120B0318
:1030A300E06404700C7403120B03AA82AB83120E48
:1030B3000A74220254AFEE240BF582EF123F14225E
:1030C300F582E9124DA9F8221257C4E064072212CF
:1030D3003F46640622EE242A123F11122CF72412D3
:1030E300123F112274F4120387EAFEEBFF8C088D62
:1030F300099005D2E0600F122AC77003A3E069703C
:1031030005120C6C804F79001250E7120C9C8A82D6
:103113008B83E58245836035A3A3A3A3A3A3E054D4
:1031230018602AE508241BF582E5091230BF120650
:10313300A61237BD1230BF1206A6EE24181257E6A8
:1031430012315A120CAE74041208B78008790012B7
:10315300315A120C7280278E828F83A3A3A3A3A359
:10316300A3A3A3A3122CF7240BF582EF123173222E
:103173003400F583123F6EFB2274031208B77F04F9
:103183000205A1EE2417F582EF124DA92274F7125E
:10319300038774F7120931EAFEEBFF900365E064DD
:1031A30003600DE064016008E06409600302325AC1
:1031B3008E828F83A3E0707E7C007D007A027B0089
:1031C300121BC6EE2402FAEF123B2A123F1F900392
:1031D30056124D907953121C14790012325FE06439
:1031E3000960031235F28518828519837401124D23
:1031F300669003657404F07401120B03AA82AB8317
:10320300794A121C0E7401120B03AC82AD837A5BF4
:103213007B03121BE49003561255F67A031235FC16
:10322300900350E0A2E35004D2F08002C2F0124DAA
:10323300531228AD801E8E828F83A3AE82AF83FC90
:103243007D007A037B10121BC68E828F83E0F912F6
:10325300325FE4F0120D2C740902533790036312AA
:103263003177120C0C90036522C082C08390033423
:10327300124D45701F900365E014600924FC600A39
:1032830014600C800F90033C8032900338802D90A3
:10329300033A8028E84960089003351235A4700C7E
:1032A3008A828B83A3E0F9120C00801B90033512F2
:1032B30038597005120E64800E9003D2124D45608A
:1032C30006124D37121DD50242C774F412038774D8
:1032D300FB1209318A088B097A0F7B001213B68A15
:1032E3000A8B0BAE0AAF0BEE4F70030233D48E8200
:1032F3008F831252C17950121C0E8508828509836F
:10330300A3E060030233BC900363E0F47003A3E023
:10331300F46034900363E064FE7003A3E0F4602779
:103323008518828519831233E07003A3E06960175F
:10333300850882850983A374EA1235DA7A637B03ED
:103343007950121C1480728518828519831257A52F
:10335300124D907A567B037953121C0E900356122A
:103363004DC1124D907A597B03794B121C0E7A583A
:103373007B0379E1121C0E90036AE0C3940F502182
:10338300900358E0C0E07402120B03D0E0F0740421
:10339300120B037401F004120B03AA82AB83121CF9
:1033A30026750A00780A120873780A120873900DBA
:1033B30029E0F91235BB1208B78508828509831203
:1033C30033D9A3F09003657403F0EEFAEFFB124DCB
:1033D30079740502317EA3E08E828F83221257A96E
:1033E300E068221243FF2274F512038774D812098E
:1033F300318A088B098A828B83A3A3A3123F4B7460
:1034030015120B03AC82AD838A828B83A3A3A3A380
:10341300A3A3A3A31235AAFAA3E0FB120D327415DA
:10342300120B03E0706B850882850983A3A3A3A312
:10343300A3A3A3A3E0C3940B40578E828F83A3A3BC
:10344300A3A3A3A3A3A3E064027046EE240B12314B
:1034530089F4703D900365E06402603AE0640660BD
:1034630035900334124D4560051235A4604F900327
:1034730065E064086005E0640470167417120B03BA
:10348300E0F9741C120B03AC82AD831250E7120DEA
:10349300387428025CC3900334124D45701F7508BD
:1034A3000078081208737808120873EE241012309B
:1034B300BC1257FE123C121235C41208B78E828F0B
:1034C30083125063123B3C123F1F7402120B031210
:1034D3004D90EE240D123189C0E07404120B03D019
:1034E300E01235CDF508A3E0F509740F7808120A48
:1034F300B57405120B03E508F07419120B03E0C051
:10350300E07406120B03D0E0F0741B120B03E0C04F
:10351300E07407120B03D0E0F07416120B03E0C043
:10352300E07409120B03D0E0F07417120B03E0C030
:10353300E07408120B03D0E0F0EE2410123189C0BE
:10354300E0740A120B03D0E0F0741A120B03E0C00C
:10355300E0740B120B03D0E0F07427120B03E0C0EE
:10356300E0740C120B03D0E0F0741C120B03A9825D
:10357300AA8389088A09750A00780812086B7C08EF
:103583007D007410120B03AA82AB831248F4120855
:10359300B7851882851983AA82AB83120C0602347D
:1035A3009412385F640122E0F98A828B83A3A3A378
:1035B300A3A3A3A3A3A3E0229003631255FA90034A
:1035C30059123177120DF2740222F0EE240B124DD0
:1035D300A622124DA9FA22F07A567B0379531235AB
:1035E300E522121C147A597B03794B121C14229086
:1035F3000363123177120E94227B00121BC69003D1
:10360300591255FA7A047B00121BC622F01258098C
:103613002274F212038774F8120931EAFEEBFF8C6D
:103623000A8D0B890C851882851983AC82AD83754D
:1036330083857582A374081207CBF50DEEFCEFFDAD
:10364300851882851983AA82AB83124FC4700375D0
:103653000D019003B1803BEEFCEFFDE508240BFA6E
:10366300E5093400124FC3601E850882850983A3D0
:10367300A3E0650C7011850882850983E0650A70F3
:1036830004A3E0650B6038E5082414F582E509120C
:1036930030BF123B34E50845096024E50DA2E04044
:1036A300B6850882850983E0650A7004A3E0650B8B
:1036B30070D5850882850983A3A3E0650C70C8AA29
:1036C30008AB097408022ADDC082C0839003B102EB
:1036D30042C474F71203879003B1123F6E8012EA5B
:1036E3002414F582EB1230BF123F4B121458EEFA3A
:1036F300EFFBEA4B70E99003B1E4F0A3F002533A15
:103703007F070205A174F1120387EAFEEBFF890A22
:103713008C088D098E828F83E08C828D831241DB2E
:10372300AE82AF83E01249B4124925C41249B412E0
:1037330037C6E054038C828D83124923A2E2E4331B
:103743008C828D83124922131313541F1249B4120E
:103753004921A2E7E4338C828D83A3A3A3A3123769
:10376300C68E0C8F0D750E00780C12086B7C087DCD
:1037730000E50824071255691208B71255D48E0CB8
:103783008F0D780C12086B7C037D00E508240F1263
:1037930055691208B7E50AC3940F40148E828F83CC
:1037A300A3A3A3E0C0E01237BD1230BFD0E0800670
:1037B3001237BD125A31F0023703E5082412F5829D
:1037C300E50922A3A31241DF0EAF832274F412038F
:1037D3008774F9120931EAFEEBFF8908900334126A
:1037E3004D45600E1238597009EEFAEFFB120E5E6A
:1037F300805F900363E06E7003A3E06F7053740106
:10380300650860097A777B03124FC470447A007BA2
:1038130002123D838B0BEA450B7036900366120A46
:10382300E0851882851983120AEC90036CE0C0E0EE
:103833007404120B03D0E0F07405120B037401F04F
:103843007406120B031252C1120BD0E9609B120BC8
:10385300D6740702317E12385F6402221257C5A361
:10386300A3A3A3A3A3E02274F51203878A088B09F9
:103873008A828B83A3AE82AF83E0F9120C248E82FB
:103883008F83E064EB600C850882850983A3E06481
:10389300E17009850882850983A3E4F01228AD75D8
:1038A3000A01780A120873850882850983A3E0F563
:1038B30008780812087379001235BB1208B7120D85
:1038C30044025CC6EAF0A3EBF00242C774F61203AB
:1038D300879003B4E0701B7C0079017A007B0012AF
:1038E3000D74EA4B600C8A828B83124D4560031280
:1038F3000CD2024D4EC082C083123D6B401079FF43
:10390300120D6EE9F89026A3E493C398500479014D
:10391300800279000242C774F01203878A088B0978
:10392300890B750C008A828B83A3A3A3A3A3A3A3F0
:10393300A3E0F9120D7A8A0E8B0FAE0EAF0F750A44
:1039430001EE4F60030239F8850882850983A3A33A
:10395300A3A3A3A31255F6850882850983A3A3A372
:10396300A3A3A3A31246F41250F4120D628A0C8B84
:103973000DAE0CAF0DEE4F7003023B1B8E828F8397
:10398300A3A3A3A3E4F0A3F0E508240B123B27E0D1
:10399300C0E01230B9D0E0F0120E3AEE240CF582FA
:1039A300EF124D19E508240EF582E509123F1CEECE
:1039B300240EF582EF124D8D750C01EE2406F8EFFF
:1039C300123B23547FF0A3E054FC12585BE05404F1
:1039D3006003023A7E900D071246E57407780812D9
:1039E3000A328E828F83A3A3A3A3A3A3E04508F087
:1039F300A3E04509F08E828F83A3A3A3A3123B32D6
:103A030074077808120AB5E5085407F508E50B6052
:103A13007A8E828F83A3A3A3A3A3A3A3A3A37402D6
:103A2300124926240D1243F4E0A2E2500B900351F5
:103A3300124DC1A3A3124D90E5087003023AF0EEB4
:103A43002406F8EF3400F9E8FAE9FB8A828B83E075
:103A5300547FFCA3E054FCFDE50824FFF508E4349F
:103A6300FFF50974077808120A32EC4508F8ED45AA
:103A730009F98A828B83124D9080728E828F83A381
:103A8300A3A3A3A3A3E044800239F7E50870057557
:103A93000A0080598E828F83A3A3A3A3A3A3E05418
:103AA3002060121213B0EA547F245F8E828F83A3A7
:103AB300A3A3A380238E828F83A3A3A3A3A3A3E0A3
:103AC3005410600A1213B0EA540F240A80DD8E8268
:103AD3008F83A3A3A3A37401F0A3E4123B3C740458
:103AE300123D7A8B09EA45097003124D0CE50CA2CD
:103AF300E050288E828F83A3A3A3A3125327F9EE4A
:103B0300FAEFFB120D68E96012124D3B6003123F9E
:103B130004EEFAEFFB121458750A00A90A0254B214
:103B2300124E8422FAE5093400FB8A828B8322A396
:103B3300A3E0F508A3E0F50922123B4022125585C4
:103B4300A3A3A3A3A32274F412038774F712093166
:103B53007E00120D7AEA4B7003023C0B8A828B8340
:103B6300A3A3A3A3A3A3A3A3A3E064066003023CAC
:103B73000B8A828B83A3A3A3A3A3A3A3E0FF8A82BD
:103B83008B83124407E0C0E07408120B03D0E012E9
:103B93003F3F124FCA124D90120D8CEF54086066CE
:103BA3008518828519831255F67A007B00120D5C05
:103BB3008B0BEA450B704F90036312402F121C3E90
:103BC3007C007D007A007B0080288E828F83123FE9
:103BD30029F47003A3E0F4602D900363123C1212E6
:103BE30050F412191AE9641A601C7C007D00EEFA85
:103BF300EFFB120D5C8A0A8B0BAE0AAF0BEE4F7014
:103C0300C97900121C447E01EEF9740902317E1257
:103C13003C1622E0FCA3E0FD8E828F8322C082C08B
:103C230083EA4B70059003B580068A828B83A3A336
:103C3300123E2F60258A828B83A3A3A3A3A3A3A3EE
:103C4300E0540860E5EC4D60158A828B83123F29AE
:103C53006C7003A3E06D70D280047A007B00024293
:103C6300C774F2120387EAFEEBFF890A8C088D09F9
:103C73007A107B00121452EA4B603F8A828B83A333
:103C8300A3A3A3A3A3A3A3A3E4123F2DA3E50A1213
:103C930057CBA3123CC78A828B83A3A3A3A3E4F0CD
:103CA300A3123F39A3F012565FEA240CF582EB12FC
:103CB30041CB123CC0A3A3F0A3F0022AE0A3F08AF5
:103CC300828B8322A3A3E508F0A3E509F02274F411
:103CD300120387EAFEEBFF89088C0A8D0BEE4F6017
:103CE300557401650870147901120D6EE9F8902678
:103CF3009BE493C398500F7911806A74046508702C
:103D03002F123D6B40F18E828F83A3A3A3A3A3A3A2
:103D1300A3A3A3E5081241DBA3125D508E828F8318
:103D2300A3A3E4F0A3F09003B5124D456021800DE9
:103D33007402650860D079C1802BE0F8A3124DBAF4
:103D4300A3A3123E2F88828983A3A370ED800390DF
:103D530003B5EEF0A3EF123D7A8B0BEA450B70032C
:103D6300124D0C79000231817904120D6EE9F8903D
:103D73002696E493C39822F0123D7F227A207B009B
:103D83009003B0E0F912151E22C082C083E9F879CE
:103D9300009003B5801D8A828B83A3A3A3A3A3A34F
:103DA300A3A3A3E068600574FF687001098A828B8E
:103DB30083A3A3123E2F70DE0242C774F712038758
:103DC300EA4B70059003B580068A828B83A3A31206
:103DD3003E2F60248A828B83A3A3A3A3A3A3A3A3BD
:103DE300A3E06970E4EC60148A828B83E0240D12F3
:103DF30055E7A2E240D380047A007B0002533AC025
:103E030082C0839003B580068A828B83A3A3123E6C
:103E13002F60128A828B83A3A3A3A3A3A3A3A3E0EC
:103E23006970E580047A007B000242C7123177EAA9
:103E33004B2274F21203878A0A8B0B8C0C8D0D753F
:103E43000800750900EA450B602E9003B580068EC5
:103E5300828F83A3A3123E82601EAC0CAD0DEEFADB
:103E6300EFFB850A82850B83121DD5E9640170DFA0
:103E7300EEF8EFF988088909AA08AB09022AE0E0FD
:103E8300FEA3E0FFEE4F2274F71203879003B512EF
:103E93003F1F7C007D00800DE8FCE9FD888289835B
:103EA300A3A3123F1FE8496030EA687002EB697010
:103EB300E79003B51250F4E86A7002E96B888289CF
:103EC30083A3A37008123F1F9003B58009123F1FFD
:103ED3008C828D83A3A3124D9002533A74F712037D
:103EE30087EAFEEBFFEE4F6015120D86123F51126B
:103EF3004D3B6003123F04EEFAEFFB1214580253DA
:103F03003AEE240C123F11123F6622EE241DF58275
:103F1300EF3400F58322F582EF123F141242BE22E2
:103F2300F582EF123F14123F4622123F31221257FD
:103F3300D3A3A3A3A322123F31A3A322123CC112F2
:103F43003F46221257BEE022E0FEA3E0FF228E820C
:103F53008F83E0241C1243F8123F668E828F8312F4
:103F63003F6622123F6EFB12145822E0FAA3E022AE
:103F7300C082C083EAFCEBFDEC4D700479058044FC
:103F8300EC24FBF582ED34FF124D437007123FCA58
:103F9300E0F46005121DCA80E39003B0E0C0E012B4
:103FA3003FCAD0E0F0902698E493F97AB77B0312E6
:103FB30013E6E96401700B7A007B20124D1079003F
:103FC300800279040242C7EC24FFF582ED34FFF549
:103FD300832274F4120387A2AFE433F508C2AF90CF
:103FE30003B7123E826038EE24FBF582EF34FF12F2
:103FF3004D437A007B209003B06005124D1380057A
:10400300E0F91213F2E4F50AF50B780A12086FEEE1
:10401300FCEFFD7AB77B031213E074021208B7E5D5
:1040230008A2E092AFEEFAEFFB0231811255FA8556
:104033001882851983AA82AB832274F212038774D0
:10404300FC120931EAFEEBFF750AFE750BFF120D38
:104053004AE9600579110241C0EE241512318960E5
:1040630037900D1BE0C43354E0F8E0333354FC487D
:10407300C0E0EE24151230BCD0E01241DB1241D176
:104083008B09EA45096011750AFFEE240F12318985
:104093004404124D9ED2E0F08E828F83122AA560D3
:1040A30006EE24121241C8EE2413123189701090C7
:1040B300269EE493C0E0EE24131230BCD0E0F08ED1
:1040C300828F83E0A2E750045403801CEE24141271
:1040D30031897015900342E0C0E0EE24141230BC25
:1040E300D0E0F0900342E004F0EE24111231896431
:1040F3000170169005C9E0600D90034DE0700A8EC3
:10410300828F83E070031241C58E828F83E0640146
:104113007013EE240B123F2364027009EE240F1276
:1041230031894440F0851882851983AC82AD83EED2
:10413300FAEFFB120DB08A088B0974FE650A70034F
:1041430074FFF470098E828F83A3A3125575EA4519
:104153000960668E828F83E0C0E07401120B03D086
:10416300E0F07402120B031256637401120B038501
:10417300820C85830D780C12086FEE240F1230BC6D
:104183001206A6EE240E123189F50C780C12087370
:104193009003561206A67407120B03E0F9AC0AAD9E
:1041A3000B120DAA74071208B7E9FE74106E700B98
:1041B300AA08AB0912145880027E10EEF9740402A7
:1041C3002ADDEE2411F582EF123F14E4F022A3124C
:1041D300317779FF121D04221241DF22F08E828F84
:1041E30083A322C082C08374DE1209318A828B8347
:1041F300A3A3A3A3123F1F740E120B03E8F0A3E9BA
:104203001242B5740C120B031242AE240DF582EB6D
:1042130012318CC0E0741A120B03D0E0F01254C2B6
:10422300EB123F1C7420120B031242AE2415F582CD
:10423300EB12318CC0E07408120B03D0E0F0EA24D7
:104243001CF582EB123F1C7412120B031242AE24B4
:1042530011F582EB12318CC0E07409120B03D0E02C
:104263001242A274FFF07401120B0374FFF0740284
:10427300120B0374FFF09085D31206A27404120B81
:1042830003AC82AD837407120B03AA82AB83120BB8
:10429300FA74041208B7790074221208B780251241
:1042A30042A622F085188285198322E8F0A3E9F05B
:1042B300EA22123CC1A31242BD22A3E0F8A3E0F913
:1042C300221250F4D083D08202084F74EC12038779
:1042D30074EE1209318A128B13ECFEEDFF89097417
:1042E30026120B031255757428120B03E0F5107494
:1042F30029120B031243E9742B120B03E0F50EA3EF
:10430300E0F50F7508107A1E7B0012145274021226
:104313000B03124D1D7402120B03124D4570030261
:1043230043E2851882851983AA82AB837950124BA5
:10433300F81250F47402120B03124407A3124D1D1A
:104343007410120B03125D527402120B03E0240B60
:104353001243F47402F0120B031244077402F012B6
:104363000B031257B61256637402120B0312510950
:10437300E509F07402120B03E0240C1243F4E51078
:10438300F07402120B031243F1E512F0A3E513F0EC
:104393007408120B03E50CF0A3E50DF0740A120B7D
:1043A30003E510F0850E82850F83C082C083740DF0
:1043B300120B03AC82AD83D083D08274031207CB7C
:1043C300F97402120B03AA82AB83120D50E9640144
:1043D300700575080080087402120B03123F0AA9C6
:1043E30008741202558CE0F50CA3E0F50D22E024CD
:1043F3001C1243F822F8A3E01243FF223400F98889
:10440300828983221250FCA3A3A3A3A32274EE12D6
:104413000387EAFEEBFF8C088D098E828F83A374DA
:1044230008124DD9E060088E828F83A37410F012B6
:10443300318660098E828F83A3E02408F0EE241571
:1044430012318960088E828F83A3E004F08E828FFD
:1044530083A3A3A3A3A3A3E060198E828F83A3A343
:10446300A3A3A3A3A3E0C3332402F88E828F83A361
:10447300E028F0EE24111231896005750B0E8003DC
:10448300750B008E828F83A3C082C083EE240D122E
:104493003189D083D082F8E028250B8C828D83F07C
:1044A300EE2411123189600512490428F08508822F
:1044B300850983E0C39475400975080075090002F6
:1044C30045F2E0FA7B0012571170030245F2EEFA4F
:1044D300EFFB120DB6EA850882850983124D1EEEA5
:1044E3002402F8EF1233E61246EC12462EF0EE24C5
:1044F300040808EF1233E6124B2EA312462EA3A391
:10450300F0EE2413124614F0EE2414124614A3F012
:10451300750A08EE24161231896010EE241812551C
:10452300F3E50824081257F4750A10123186601651
:10453300EE241A1255F3850A0CE508250C1257F4DC
:104543007408250AF50A8E828F83A3A3A3A3A3A3CA
:10455300E06059EE2407F510EF3400F51185108261
:10456300F583E0C0E01245FB1230BFD0E012461ED7
:10457300E0C0E01245FB1230BFD0E012461EA3128A
:10458300460712086B851082851183E0C333FCE470
:1045930033FD850A0CE508250C1255691208B78509
:1045A3001082851183E0C333250AF50AEE24151220
:1045B3003189600BC0E01245FB1230BFD0E0F0122E
:1045C30030B912460712086BEE240D123189FC7DB7
:1045D30000850B0A8E828F83A3E0F8E50828F8E5AF
:1045E300093400F9E8250AFAE912556C1208B7AA4A
:1045F30008AB097F0A0205A1850A0CE508250CF51D
:1046030082E50922E0F50CA3E0F50D750E00780CA8
:1046130022123F11124638A3A3A322F0050A8E8269
:104623008F83A3A3A3A3A3A3A3A322A3A312585F2C
:10463300A312463822124B32A3A32274F612038725
:104643008A828B83E0FC9003531246E57402780858
:10465300120A32EC4508FCAD09EA24121246DF7453
:10466300067808120A32EC4508FCED4509FDEA24F8
:1046730015F582EB12318C6004780180027800E436
:10468300C8F9ED49FDEA2411F582EB12318CF508E6
:10469300880974097808120A32ED4509FDEA2416DF
:1046A3001246DF740B7808120A32ED4509FDEA243D
:1046B300171246DF740C7808120A32ED4509FD8A99
:1046C300828B83A3A3A3A3A3A31246E5740A78084A
:1046D300120A32ECFAED4509FB024D4EF582EB125C
:1046E3003F14E0F50875090022E0850882850983F7
:1046F30022A3E0F98508828509832274EE120387D9
:104703008A0A8B0BECFEEDFF750F01E9C394085089
:104713000579000248F18E828F83E9F0124B57E945
:104723006003750F00124B3B8E828F83124B85EE15
:104733001254C3EF124B7AC0E0EE24111230BCD0F6
:10474300E0124B72C0E0EE24121230BCD0E01241F2
:10475300DB740812557DA3A3A3E06015124B23EE6F
:104763002413F582EF124D8D8E828F83A3E02408EC
:10477300F08E828F83A3A3A3A3A3A3A3A3E06021AB
:104783008E828F83A3858208858309124B66EE246C
:1047930015F582EF124D8D850882850983E0240883
:1047A300F08E828F83A3A3A3A3A3E0601A8E828FCC
:1047B30083A3858208858309124B4A8E828F83A344
:1047C300A3A3A3A3124916EE24191241C8EE241B76
:1047D3001241C8A3124DD1E07003024885EE24199B
:1047E300F8EF3400F98E828F83A3858208858309CD
:1047F300E0FAE50A2AF582E50B12318C8882898377
:10480300124916FAE50A2AF582E50B12318CC0E04B
:10481300EE241A1230BCD0E012491688828983E054
:104823006059F8902697E493C398500575110C804E
:1048330008EE2419123189F5118E828F83A3E0F8D3
:10484300E50A28F50CE50B1248FA12086BE511C3CB
:1048530033FCE433FD7AAA7B0B1248F41208B7EE5B
:10486300241B1230BC74AAF0A3740BF0E511C333FC
:10487300F8850882850983E0288006EE2418125AF9
:104883002EF08E828F83A3E0F88E828F83E0C3980D
:104893005003024714A3E0FA8A08E50A2508F8E55D
:1048A3000B3400F9EE241DF582EF124E99124926BE
:1048B300C39AC0E0EE24171230BCD0E0124D9660CC
:1048C3002BEE2417F8EF3400F9880889098882F55C
:1048D30083E024F2124E7A240EFAA3E03400FB881C
:1048E300828983124D1D124904C398F0A90F024512
:1048F300F612138C7403223400F50D750E00780C38
:104903002290034EE0F9120B3AE9F88508828509F3
:1049130083E022F0850882850983E004F022A3A3C3
:10492300A3A3A3F08E828F83E02274F41203878AF9
:10493300088B09EA1249BBF0EA1313543F1249B436
:10494300A3A3A3F0EAC413131249BBA3A3F0EB126E
:1049530049AD1249C57409780A120AB51249AB1256
:1049630049C4740A780A120AB5E50A5401C0E0EC96
:104973002418F582ED1230BFD0E01249CA740B78C7
:104983000A120AB51249ABA31249C4740C780A126D
:104993000AB51249ABA3A3A3A3A3A3A3A3F0740DC6
:1049A3007808120AB5022CEBE50A54018C828D8338
:1049B30022540F8C828D832254038C828D83A3A374
:1049C30022A3A3A3A3A3A3F08A0A8B0B22C082C0B2
:1049D3008379008A828B83A3A3A3A3A3A3E0900379
:1049E3004D600FE070228A828B83A3A3E0701909C4
:1049F3008016E060138A828B831250EB900356E09B
:104A03006A7003A3E06B70E70242C774F012038776
:104A13008A0A8B0B890C8C088D09124B57124B3B5E
:104A2300850882850983124B85E5081254C3E5097D
:104A3300124B7AC0E0E5082411F582E5091230BF74
:104A4300D0E0124B72C0E01237BD1230BFD0E0127B
:104A53004EA17408124EBA6011124B23E5082413B9
:104A6300124E95124EA1E02408F085088285098331
:104A7300A3A3A3A3A3A3A3A3E06017850882850927
:104A830083A3124B62E5082415124E95124926247E
:104A930008F0850882850983A3A3A3A3A3E0601973
:104AA300850882850983A3AE82AF83124B4A8508AA
:104AB3008285098312492104F0AA08AB09120DC8A3
:104AC300E9F50D7056850882850983A3A3A3A3A3E3
:104AD300A3124B2E7014E0FA8A0EE50A250EF8E5B0
:104AE3000B124D82E50CC39A8021124B62E8240E0F
:104AF300F8E9124D8290034EE0F9120B3A8E828F41
:104B030083E0F8E50CC39824F2C399C0E0E50824D8
:104B130017F582E5091230BFD0E0F0A90D0254B2B7
:104B2300E50A2408F8E50B3400F922124B3222E09F
:104B3300850882850983A322850A82850B83A3A323
:104B4300124B9BE0F9EA22E0F8E50A28F582E50B2F
:104B5300124DA9228A828B831254B7120DC222AE40
:104B630082AF83E0F8E50A28F8E50B3400F9221256
:104B73004BAEA3A3A3E022123F14E8124BA7A3A3B7
:104B8300E022A3A3A3A3A3A3A3A3A3124BA7124B04
:104B93009BA3A3E0F9EAF822E0FA850A82850B8356
:104BA300A3A3A322F0A3E9124BAE22F0850A8285C8
:104BB3000B83A3A3A3A322C082C0837AC57B0379FB
:104BC300E2121C0E7AC57B030242C7C082C08390E7
:104BD30003560242C4C082C08374FE120931851891
:104BE30082851983AA82AB83794B124BF81250F456
:104BF300740202429D121C0E85188285198322C0FD
:104C030082C083794A121C0E0242C774F6120387CC
:104C13009003CDE0FE04F0EEF9120D7A8B09EA451C
:104C23000970EDEE60EAF9024D4E74F0120387EA63
:104C3300FEEBFF8C088D09890A7410120B03E0F553
:104C43000B7411120B03E0F50C120E9AEA4B70135E
:104C5300E50C7042A90AAC08AD09EEFAEFFB120E9F
:104C6300B2806EE50A6021EA2402F582EB12318CF0
:104C7300850A082508F8E4340013E813F070098A5C
:104C8300828B83A3A37401F0E50C6045E50B7006EA
:104C93008A828B83E4F07401650C7035E50B900315
:104CA300D47004E4F0802AE004F0900D08E0F8905A
:104CB30003D4E0C398401AE4F0900359E06E700304
:104CC300A3E06F700CEEFAEFFB7901120C1E124C8D
:104CD300D70254B27A017B009003B0E0F9121518A1
:104CE30022C082C08374016A7001EB70077A0112DB
:104CF3004D0E8012900CFF124D1DEA4B6005122AD7
:104D0300678003124CD70242C77A207B009003B01E
:104D1300E0F91213EC223400F583EAF0A3EBF0225E
:104D2300C082C083900D010238C7C082C083900D3A
:104D3300030238C71257C522EE240CF582EF340064
:104D4300F5831242BEE849221208B77F020205A189
:104D5300A2F0E433851882851983124D6F795212BC
:104D63001C1422124D6F7942121C1422F0AA82AB3A
:104D73008322AA08AB099003B0E0F91213C22234CC
:104D830000F9E508241DF582E509123F14E8F0A3B4
:104D9300E9F022125581A3A3E022A3F0EE24151219
:104DA3004DA622F582EF3400F583E022124DB322A3
:104DB3003400F583E0F8A3E0F98882898322E0F8E0
:104DC300124DC722A3E0F98E828F83A3A322F0EEB4
:104DD3002418123F1122F0EE2416123F112274F40C
:104DE300120387EAFEEBFF7A007B04124CDB124EC0
:104DF30070124D909003657409F0120DD48A088BDC
:104E030009AC08AD09EE24131230BC1250F4124F52
:104E1300C4640170487A0F124E6360418A828B83A7
:104E23007402124E7AFAA3E0FB8A828B83A3E0FC1E
:104E33008A828B83A3A3E0FBEC850882850983A385
:104E4300A3124D1E888289831250F81246EC124D2C
:104E53009DFAA3E0FB794A121C14124D75023181AD
:104E63007B001213B68A088B09EA450922900336A0
:104E73001242BE900D0322F0EE241DF8EF124E8471
:104E8300221243FFE022124E8D223400F583740177
:104E9300F022F582E509123F14E8F0A3E922124E4D
:104EA300A522124EA922F0850882850983A3221226
:104EB3004EA9A3A3A3A322124EB2A3A3E02212528C
:104EC300CB120E2822EE2417F582EF124E8D120D0F
:104ED300D4EE241A123F11EAF0A3EBF02274F41279
:104EE300038774F31209318908EAFEEBFF7C0D7D19
:104EF300007900851882851983AA82AB83121398DF
:104F0300EE241D1230BC1257B6A3E0F8741F58608C
:104F13000A7901121BCC7900024FBBE8A2E55008C5
:104F2300740C120B037401F0E8A2E75008740B121F
:104F33000B037401F0E8A2E6740A5008120B037421
:104F430001F08008120B03E064017005EE24138066
:104F530003EE24151255F37402120B03AA82AB83DA
:104F6300121BE41230B9124FC9124D90740A120B7E
:104F730003E064017033122A9A703B120DE08A0A2F
:104F83008B0BA80AA90BEE240B123189687003A3BB
:104F9300E0697022120DD4EAFCEBFD7402120B03DC
:104FA300AA82AB83124FC4600D851882851983AA28
:104FB30082AB83120C18A908740D02317EEEFAEF4E
:104FC300FB121BDEE922E0124FCE22F8A3E0F985A3
:104FD30018828519832274F612038774F312093138
:104FE3008A088B09ECFEEDFF7C0D7D0079008518A6
:104FF30082851983AA82AB8312595BA3A3A3A3A3BC
:10500300A3A3A3A312506312506CF8A2E550087433
:105013000B120B037401F0E8A2E75008740A120B99
:10502300037401F0E8A2E6EE500424138002241571
:105033001255F37402120B03125055A3A3E0C0E000
:10504300740C120B03D0E01252C3120C12740D0233
:105053004D4BAA82AB83121BE48508828509832208
:10506300E0124FCEE8F0A3E922F0123F0E1257BA36
:10507300A3E02274F712038774E1120931EAFEEB0D
:10508300FF8E828F831250F8A3A3A3E0A2E05051B6
:105093008E828F83122BFA8A828B83A3A3A3A3A36B
:1050A300A3E054FE1251108A828B83125109E0F956
:1050B3008A828B83E0241CFAA3E0123B2A1250F469
:1050C300120DCEE9701B741D120B031251037011E4
:1050D300851882851983AC82AD83EEFAEFFB120E3D
:1050E300160253358E828F83A3A3A3A3A3A3A3A3E3
:1050F300A3123177221250FC221257BEA3A3A3227C
:10510300123F46640422E0241B1243F8221242A6F3
:10511300AC82AD8322E9F87900740468600A740AEA
:1051230068600574036870010902084F74F612037E
:10513300878A828B837420F0A3A37401F0120BC4BB
:105143008A088B09AE08AF09EE4F60108E828F83F9
:105153007401F09003A3E07003124EC8EEFAEFFB64
:10516300024D4EC082C0839003B97401F0E9A2E3FB
:1051730050037403F0E9A2E15004E0D2E2F00242EA
:10518300C774F612038779007C008A088B097808B4
:105193001205E7F8FF07B751B551B551B551B551F0
:1051A300AE51B251B751AB510C80097C0480050C50
:1051B30080F67C089003B9E05C6003098003EC602F
:1051C3000109024D4E74F61203878A828B83E070C5
:1051D30012A3124D45600C8A828B831250F3121D69
:1051E3003480047A007B00024D4E74F512038774F9
:1051F300F31209318A088B09ECFEEDFF750A12EAF6
:105203004509700579000252BC900356E0650870A9
:1052130004A3E065097014120DD4EAFCEBFD124FF0
:10522300C07005750A018003750A00851882851907
:1052330083E4F004120B03E508F0A3E5091252C35B
:10524300120B88E960277403120B03AA82AB831243
:105253000B6AE964017016750A017403120B03AC3F
:1052630082AD83124FC06021750A00801C741265E1
:105273000A70169003A2E06402700EEEFCEFFDAA22
:1052830008AB09120BA0E970DFEEFCEFFDAA08AB37
:1052930009120EA0E9F8740A687005750A018017EF
:1052A30074A0687012EEFCEFFDAA08AB09120EACF5
:1052B300AA08AB09120EBEA90A740D025CC37402DC
:1052C3001252C7221252CB221242A6AA82AB8322C7
:1052D30074F7120387EAFEEBFF8E828F83A3A3A3E7
:1052E300A3A3A3A3A3E06015EE24151230BC1231CF
:1052F30067120E40E964017004790180258E828F64
:1053030083A3A3A3A3A3A3A3E06015EE24131230E6
:10531300BC125327FAA3E0FB120E40E9640160D9E3
:1053230079008013123C16A3A3A3A3A3A3A3A3A34F
:10533300E022741F1208B77F010205A174F0120363
:105343008774FD1209318A088B09ECFEEDFF890B86
:105353007413120B03E0F50C750A017401120B03AD
:1053630074041257EE6048E50C601DEA2417F582B9
:10537300EB125A311257DC8A828B83E0D2E7F0EAD0
:105383002414F582EB1241CB1254C2EB124DAF74CD
:1053930003125D54EE88828983A3A3F0EF88828988
:1053A30083A3A3123CC0123CC7120BBEE9F50AA9A2
:1053B3000A74030254AF74EC12038774F5120931B3
:1053C3008A0A8B0B890C8C0E8D0F741F120B03E052
:1053D300F50D7420120B03E0F510A3E0F5117E0127
:1053E300EE120B03740AF0E97007E50DC333240AC8
:1053F300F012559470030254961255A97409F0A340
:10540300E50CC43354E0450D1255BBE50C702D7CFF
:10541300008023ECC333F8E433F9E51028F8E511F1
:1054230039F9888289831254A3888289831233D9F4
:10543300F0A30EAF830CECC3950D40D7E5082417FA
:10544300F582E509124E89120DD4E508241AF58276
:10545300E509124D197403120B03AC82AD83AA0A3A
:10546300AB0B120B70E96019E5082416F582E50908
:1054730012549D120B03A882A983E5082418124D28
:1054830089850882850983125D50AA08AB09120B2E
:10549300BEE9FEEEF9740B02558C124E8D74032295
:1054A300E08E828F83F0A3AE82AF83221208B77F90
:1054B300080205A1123F6EF9EA2400E439FB22EA4F
:1054C300240BF5822274EE1203878A0C8B0D890E4E
:1054D3008C088D097412120B03E0F50F7413120B71
:1054E30003125575900538124D456077E50FC333A8
:1054F300F8E433F9E8240EFAE93400FB1213B68A10
:10550300108B11AE10AF11EE4F60588E828F8374E3
:10551300D4F0A3A3E50CF0A3E50D12557DE50EF041
:10552300AC08AD09EE2405FAEF1257F7EE240D127D
:1055330030BCE50FF0850A08850B09750A00780869
:1055430012086BE50FC333FCE433FDEE240EFAEFD0
:1055530012556C1208B7EEFAEFFB9005381257B6E6
:10556300121DD50245F6FAE5093400FB12138C74BB
:105573000322E0F50AA3E0F50B221255812212550E
:1055830085221241DFA3A3A3221208B77F0C0205D1
:10559300A1851882851983AA82AB83120E288A08F3
:1055A3008B09EA450922EA240BF582EB124DA9FE89
:1055B300A3E0FF8E828F8322F0A3AE82AF83AC0E73
:1055C300AD0FEEFAEFFB1255CD22121BE41255D4A8
:1055D30022EE2408FEEF3400FF22E0FA8E828F834E
:1055E300A3A3E022FEA3E03400FF8E828F83E02298
:1055F300123F111255FA22E0FCA3E0FD221231778B
:10560300120DBC2274F6120387EAFEEBFF9003BA75
:10561300801388828983E06E7003A3E06F603A8809
:10562300828983A3A3124D4570E87A047B00121488
:10563300528A088B09A808A909E849601C8882894D
:10564300831256639003BA1250F488828983A3A30A
:10565300124D1D9003BA124D90024D4E8A828B83D8
:10566300EEF0A3EFF02274F41203877E009003BAE6
:1056730080070E88828983A3A3124D4570F4EEC37D
:1056830033FAE433FB125711607E7F009003BA8034
:1056930024888289831255F6EFC333FAE433FBE59A
:1056A300082AF582E5093BF583ECF0A3EDF00F88BA
:1056B300828983A3A3124D4570D79003AB122AD4DA
:1056C3007003A3E0697808701912086FEEF50A7881
:1056D3000A1208737C777D0379009003AB12571C81
:1056E300801A12086FEEF50A780A1208737C777D28
:1056F3000379009003AB1250F4120E527403120894
:10570300B7AA08AB09121458120BD602318112142E
:10571300528A088B09EA450922123177120E582260
:10572300C082C08380128A828B83A3A3123F1F90FF
:1057330003BA124D901214589003BA123E2F70E61A
:105743000242C774F6120387900363123F4B900320
:10575300CE1257A5124D907ACE7B037950121C14AA
:105763009003CE122CF3FAEFFB120EB89003CE1275
:105773003F4B90053A124D4560257A067B00121384
:10578300B6EA4B601A8A828B8374D5F0A3A3E41222
:1057930057CB041257DC90053A1257B6121DD502A7
:1057A3004D4E1257A922E0F8A3E0F9900363228E2D
:1057B300828F831257BA221257BE22E0F81257C4BF
:1057C30022A3E0F5838882221257CF221257D322D5
:1057D300F08A828B83A3A3A3221257CFA3EEF0A355
:1057E300EFF022F582EF124DA9F922124EC1EA4BD6
:1057F30022FAE5093400FB121BE422124DC8A3A3CD
:10580300A3A3A3A3A322902699E4932401F8E43449
:1058130000F97A027B002274F71203877E0080046A
:10582300125E070E12592B40F77E00EE1258467493
:10583300FEF0A30412585BE4F00EEEC3940340EBB6
:1058430002533A75F003A4F8A9F074BC28F8740362
:1058530039F988828983A32212585F22F0888289CA
:10586300832274F71203877F0080010F9026A1E43F
:1058730093F8EFC3985026EF125A176A7003A3E008
:105883006B70E8125DB46C7003A3E06D600A74FF83
:105893006C700374FF6D70D312592280047A007BFD
:1058A3000002533A74F61203877CFF7DFF7AFE7B76
:1058B300FF120E7CEA4B70407508008036E50875D0
:1058C300F017A4F8A9F0744528F582740A125A292E
:1058D300600C744428F582740A125A2970137436C2
:1058E30028FE740A39FF8E828F83125A36EEFAEF3E
:1058F300FB050812599140C5024D4E74F4120387FB
:105903008A088B09ECFEEDFF800B120E8EEEFCEF86
:10591300FDAA08AB09120E7CEA4B70EE02318174CA
:105923003628FA740A39FB229026A1E493F8EEC3D1
:10593300982274F7120387EAFEEBFFEE4F60101212
:10594300595574FEF0A304125D5A14F0A304F00237
:10595300533A7C177D0079001213988E828F83222D
:1059630074F7120387EAFEEBFF7508008018E50859
:1059730075F017A4F8A9F0125DBF7003A3E06F6080
:1059830003125E0F050812599140E302533A902621
:10599300A1E493F8E508C3982274F6120387120E64
:1059A3007C8A088B09A808A909E849600AE8240D3C
:1059B300FAE93400FB80047A007B00024D4E74F454
:1059C3001203878A0A8B0BECFEEDFF75080075093D
:1059D30000802EE50975F017A4F8A9F0125DFA60AE
:1059E3001EE509125A17650A7004A3E0650B7003DC
:1059F30075080AEEFCEFFD125CB660034308A005D0
:105A0300099026A1E493F8E509C3985004E50860DA
:105A1300C2022CEB75F017A4F8A9F0125A222274D3
:105A23003628F582740A39F583E022F582EF123FB6
:105A330014E422123177120CB42212585FA3A3A3E9
:105A4300A3A3A3A3A32274F21203878A088B09ECEE
:105A5300FEEDFF740E120B03125575750C007C00DE
:105A63007D0180101213B0E50CF5F0EA84ACF075FB
:105A73000C007D00780079008003125BF3125C4F09
:105A83004003025B15E8FAE9FBEA75F017A4FA850F
:105A9300F00D75F017EBA4250D125C2B7003A3E03A
:105AA300F460D7125C0965087004A3E0650960CA55
:105AB300125C096E7003A3E06F60BF125C09650A94
:105AC3007004A3E0650B60B2E8FAE9FBEA75F0172E
:105AD300A4FA75F017EBA4250DFB74442AF5827420
:105AE3000A125BEA509474016D050C608DE50CC3DA
:105AF3009C4087E875F017A4F8AAF075F017E9A49D
:105B03002AF9743628F582740A39F5831250F4029F
:105B13005BE7780079008003125BF3125C5C40035F
:105B2300025BCEE8FAE9FBEA75F012A4FA85F00D00
