:020000040000FA
:06000000020A4C0201C6D9
:03002B0002088741
:030033000206A31F
:0300430002073C75
:030053000200F7B1
:03006B0002068901
:1000830002015B0101FF01010503010F10FEFFD611
:1000930012D612D612D61292118C11D612752500D1
:1000A300000000D725000000000C0000000C000138
:1000B30004FFFF414C442042726F616463617374B7
:1000C300000102006A05000000DD05640002020071
:1000D300080000050207051E02051E020A0A03B8EE
:1000E3000B02803E0102F1FF141F00E00796511836
:1000F30000020206C0E074F21203DFA2AFE433FE93
:10010300D2AFE5A7FFE5A1F5085F54106006121A08
:10011300B075A1EFE5085F54086008121AB675A11F
:10012300F7802BEFA2E0C0D0E508A2E092F012091D
:1001330089158182F05017906198E0F8900ABBE02E
:10014300C398A2D265D0335002E8F075A1FEEEA2A7
:10015300E092AF7F0102043EC0E074F21203DFA21B
:10016300AFE433FED2AF9061A4E0F8759B00E59154
:1001730058540860087591F7121AFE802AE59158C1
:10018300541060087591EF121B04801BE8A2E0C0B5
:10019300D0E591A2E092F0120989158182F050070F
:1001A300E0C2E0F0121C489061A3E0F8E5E958547E
:1001B30004600E121C1E75E9FB906193E0A2E640F9
:1001C300F2808BC0E074F21203DFA2AFE433FED2FD
:1001D300AF9061A5E0F8E5BF585404600675BFFB16
:1001E300121C60020151C3E498F8E499F912022A3F
:1001F3008026C3E49AFAE49BFBE920E7E912022A8A
:10020300E498F8E499F922C3E498F8E499F912021E
:100213002AE498F8E499F9C3E49AFAE49BFB22EB05
:1002230020E7CFE920E7E0B90010BB0008E88AF037
:1002330084F8AAF022E4FBC8FA22EB70227B10C8F0
:1002430033C8C933C9335007C39AC3DBF280069A54
:1002530050012ADBEAC833F4C8C933F4C9FA22755A
:10026300F008E4C833C8C933C933C99AC99B5004D9
:10027300C92AC93BD5F0ECFBC833F4C8E4C9FA2258
:10028300080808EAC0E0EBC0E086F0E7A4FA180922
:1002930086F0E7A42AFA180986F0E7A42AFA1809CF
:1002A30086F0E7A42AFA1986F0E7A4FBE5F02AFA18
:1002B300190886F0E7A42BFBE5F03AFA190886F053
:1002C300E7A42BFBE5F03AFA18180986F0E7A4C572
:1002D300F02BFBE43AFA1908E7C5F0C6A426F6E5C5
:1002E300F03BFBE43AFA1886F0E7A4F6E5F00826BB
:1002F300F6E43B08F6E43A08F6D0E0FBD0E0FA2255
:10030300E4CFC0E0E4CEC0E0E4CDC0E0E4CCC0E0A4
:1003130075F020C3E633F608E633F608E633F6084D
:10032300E633F6181818EC33FCED33FDEE33FEEF2D
:1003330033FFC3EC9709ED9709EE9709EF97191966
:1003430019400FFFEC97FC09ED97FD09EE97FE1995
:100353001906D5F0BEECF709EDF709EEF709EFF74B
:10036300191919D0E0FCD0E0FDD0E0FED0E0FF2267
:100373002518C582C0E0E51934FFC583C0E0E51840
:10038300C3958224F810AF088583198582188008E5
:10039300858319858218D2AFCEF0A3E520F0A37828
:1003A30008E608F0A3DEFAEFF0A3E58124FAF8E605
:1003B30008F0A3E608F0A3E608F0A30808E608F0AF
:1003C300A3E608F0A315811581D0E0FED0E0F8156F
:1003D3008115811581E8C0E0EEC0E022C0D0251868
:1003E300C582C0E0E51934FFC583C0E0E518C395B5
:1003F3008224F310AF0885831985821880088583CA
:1004030019858218D2AFC8F0A3E9F0A3EAF0A3EBF1
:10041300F0A37908E709F0A3D8FAECF0A3EDF0A371
:10042300EEF0A3EFF0A3D0E0F0A3D0E0F0A3D0E090
:10043300F0A3E520F0A3E5F0F0A322851983851846
:1004430082E0C0E0A3E0F9A3E0FAA3E0FBA378080D
:10045300E0F608A3DFFAE0FCA3E0FDA3E0FEA3E0DF
:10046300FFA3E0C0E0A3E0C0E0A3E0F5D0A3E0F584
:1004730020A3E0A3F5F010AF0885831985821880C7
:1004830008858319858218D2AFD082D083D0E0F853
:10049300D0E032120AAEB900030204D8E49003019B
:1004A3007882790E8002F0A3D8FCD9FA901082AA40
:1004B30082AB83900086787279018015E493A3ACB4
:1004C30082AD838A828B83F0A3AA82AB838C828DD5
:1004D30083D8E9D9E77582107583E374031207FFA4
:1004E30075821275831F74001207FF150075F010D3
:1004F3008E1A8F1B85821F85831E8518828519831B
:10050300E0CEA3E0CF851F82851E83EBC9EAC8ED49
:10051300CBECCAC3E833C8E933C9EA33CAEB33CBFC
:10052300C3EA9EF51DEB9FF51CB35004AB1CAA1D3B
:10053300EC33CCED33CDD5F0DAAE1AAF1B22D0833A
:10054300D082ECC0E0EDC0E0E493A3FCE493A3FD10
:10055300ED4C600D120619EC24FFFCED34FFFD8019
:10056300EFE493A3FCE493A3FDED4C600D1206E7C7
:10057300EC24FFFCED34FFFD80EFD0E0FDD0E0FC88
:10058300E493A3C0E0E493C0E02285198385188235
:10059300E0A3FEE0A3F5207808E0A3F608DFFAE085
:1005A300A3FFE0A3C0E0E0A3C0E0E0A3C0E0E0A3BA
:1005B300C0E0E0A3C0E010AF0885821885831980EE
:1005C30008858218858319D2AFD083D082020805AB
:1005D300D083D082E9C0E0E493A3C386F0C5F0954D
:1005E300F0F908E493A386F0C5F095F0700BE4935B
:1005F300A3C3994005E9048002A3E475F002A4258E
:1006030082F582E5F03583F583D0E0F9E493A3C066
:10061300E0E493C0E022C0E0C3E49396087401933E
:100623009618400FE4936670080874019366187077
:10063300007019A3A3C3E49396087401939618A3B7
:10064300A3400DD0E0D0E0D0E002057DA3A3A3A397
:10065300A3A3D0E0227404800474028000CCC0E021
:10066300EDC0E0E518C39CCCAD1950011D10AF06D9
:100673008C188D1980068C188D19D2AF120781D072
:10068300E0FDD0E0FC22C0E074F21203DFE589A2B2
:10069300E15003121960758900C2C57F0102043E4F
:1006A300C0E074F21203DFE58BA2E050031219607D
:1006B300758B00C2E880E474028000CCC0E0EDC01A
:1006C300E0E518C39CCCAD1950011D10AF068C1882
:1006D3008D1980068C188D19D2AF12075FD0E0FDFB
:1006E300D0E0FC22C0E0C0F088F0E4936670080814
:1006F30074019366187000A8F0A3A3700BD0F0D018
:10070300E0D0E0D0E002057DA3A3D0F0D0E022D07A
:1007130083D082CCC0E0E493A360061207C11470B7
:10072300FAE493A360061208D11470FAD0E0FCE453
:1007330093A3C0E0E493C0E022C0E074F21203DFAD
:10074300A2AFE433FED2AFC2C0E5D1A2E45003129C
:100753001A26EEA2E092AF7F0102043ECAC0E0E493
:1007630093A3C582CCC582C583CDC583F0A3C582BF
:10077300CCC582C583CDC583DAE5D0E0CA22CAC021
:10078300E0E0A3C582CCC582C583CDC583F0A3C5F4
:1007930082CCC582C583CDC583DAE6D0E0CA227098
:1007A30009080808226016181818C6C333C608C6F5
:1007B30033C608C633C608C633C6D5E0EA22C0E04E
:1007C300E493A3D39C5010E493A3C39C400AD0E0CA
:1007D300D0E0D0E002072FA3A3A3D0E022C008C338
:1007E300E096F50808A3E096420808A3E0964208BD
:1007F30008A3E09645087001D3D00822C09FF59F57
:10080300E473D09F22D083D082C09FE493C0E0746E
:100813000193C0E0740293F59F227404800A740369
:100823008006740280027401C0E0F404120838D018
:10083300E0120A89222518F58210AF08F518400244
:1008430015198008F51840021519D2AF85198322AE
:10085300BB0102E722C082C08389828A83BB000373
:10086300E08002E493D083D08222C0D0251810AF59
:1008730008F518500205198008F51850020519D219
:10088300AFD0D022C0E0C0D0E8C0E0E5A8D2AFC26C
:10089300C7A2E792AFD0E0F8D0D0D0E0326016081C
:1008A3000808C6C313C618C613C618C613C618C687
:1008B30013C6D5E0EA22C3E0C696F608A3E0C696BF
:1008C300F608A3E0C696F608A3E0C696F622C0E0B3
:1008D300E493A36C7009D0E0D0E0D0E002072FA32B
:1008E300A3D0E022251810AF08F51840021519808F
:1008F30008F51840021519D2AF22C3E09608A3E009
:100903009608A3E09608A3E096A2D265D03322E02E
:1009130066701008A3E066700A08A3E06670040816
:10092300A3E06622E76670100809E766700A080903
:10093300E76670040809E76622C3E096F008A3E0BF
:1009430096F008A3E096F008A3E096F022E026F0E4
:1009530008A3E036F008A3E036F008A3E036F0225F
:10096300E627F60809E637F60809E637F60809E642
:1009730037F622E026F608A3E036F608A3E036F6BB
:1009830008A3E036F622C0E0E8C0E0E58124FCF8E5
:10099300E6A2E7D0E0F8D0E022700422600D18C68A
:1009A300C333C608C633C6D5E0F41822E657F608A3
:1009B30009E657F60809E657F60809E657F622E06E
:1009C30056F608A3E056F608A3E056F608A3E05649
:1009D300F622E056F008A3E056F008A3E056F0082C
:1009E300A3E056F022E647F60809E647F60809E6CB
:1009F30047F60809E647F622E4C396F608E496F6B6
:100A030008E496F608E496F622C3E7960809E79603
:100A13000809E7960809E79622C6F4C608C6F4C68D
:100A230008C6F4C608C6F4C622600D08C6A2E713BA
:100A3300C618C613C6D5E0F322C3E09608A3E09612
:100A430008A3E09608A3E0962275D000758140754F
:100A5300180175190300020496E0F608A3E0F608EE
:100A6300A3E0F608A3E0F622600C08C6C313C61879
:100A7300C613C6D5E0F422E6F008A3E6F008A3E621
:100A8300F008A3E6F022CAC0E0E6F0A308DAFAD041
:100A9300E0FA22E0FAA3E0FBA3E0FCA3E0FD22EAF4
:100AA300F0A3EBF0A3ECF0A3EDF022E5C754F84478
:100AB30001F5C77901222518F582E43519F583225A
:100AC300C2AF75D69F02000022120808B9E00212D5
:100AD30008080EE3021208085BE402120808FEE4A9
:100AE3000212080845E60212080863E60212080823
:100AF300772800120808892800120808DB2800124A
:100B030008083C2900120808C629001208086A2AA6
:100B130000120808BE2A00120808D72A0012080883
:100B2300FD2A00120808382B001208087C2B00123B
:100B33000808A32B00120808F42B00120808A42CA1
:100B4300001208085C2D00120808242E0012080861
:100B5300E42E00120808282F001208084D2F001257
:100B63000808902F00120808DD2F001208083531FD
:100B730000120808BB3100120808D9310012080816
:100B83000332001208081D32001208082C3200122A
:100B93000808373200120808F732001208085033E9
:100BA300001208081234001208081A340012080848
:100BB300DE34001208084A350012080875360012A0
:100BC30008089A3600120808103700120808A237DE
:100BD3000012080862380012080881380012080859
:100BE300903900120808A23900120808123A0012BC
:100BF30008083C3A00120808CA3A00120808033BE6
:100C0300001208084F3B001208086B3C001208084A
:100C1300B43E00120808BF3E00120808CA3E001284
:100C23000808D53E00120808DF3E00120808EA3E15
:100C330000120808043F001208080E3F00120808BB
:100C4300183F00120808233F001208084B3F001208
:100C53000808A63F00120808B03F00120808D43F56
:100C630000120808F83F001208085640001208084E
:100C73009A4000120808B640001208082D410012DD
:100C83000808654100120808B141001208080E4225
:100C930000120808C84200120808AC4400120808F1
:100CA3000545001208083546001208085B46001285
:100CB3000808E44700120808604B00120808324D88
:100CC30000120808FB4E00120808A84F001208087B
:100CD300135100120808B25100120808F75100120C
:100CE3000808615200120808705200120808F754ED
:100CF30000120808A956001208081657001208081F
:100D0300F557001208080E59001208088B5A0012F2
:100D13000808AA5A00120808FF5A00120808045CBF
:100D2300001208082C5C00120808845C00120808F2
:100D3300635D00120808A75D00120808F25D001247
:100D430008085D5E001208089E5F00120808026032
:100D530000120808506100120808B0630012080866
:100D6300E16300120808996500120808EE65001295
:100D73000808F266001208088F6700120808E8677F
:100D8300001208089B68001208083D690012080851
:100D9300DD6900120808826A0012080848860112F9
:100DA3000808878601120808CE88011208081889E6
:100DB30001120808338A011208089B8A01120808E5
:100DC300D08A01120808448C01120808C78E011248
:100DD3000808F08F011208088690011208088E99FE
:100DE30001120808239A011208080A9D0112080833
:100DF300FD9D011208086B9E01120808B19F0112A4
:100E0300080893A00112080878A20112080889A40F
:100E130001120808F3A401120808C5A50112080865
:100E2300F3A501120808B0A60112080887A701124A
:100E330008084EA801120808F2A8011208081BA905
:100E4300011208083DA90112080893AB0112080812
:100E53006BAC01120808AFAC0112080817AD011200
:100E63000808CFAD0112080801AE0112080845AE0B
:100E7300011208087BAE01120808C7AE0112080868
:100E83001CAF0112080821AF0112080874AF011248
:100E9300080899AF01120808A8B0011208080CB19C
:100EA300011208087CB10112080808B201120808EF
:100EB300D5B401120808B9B5011208083CB70112EC
:100EC300080872B90112080820BA01120808D0BA3A
:100ED3000112080811BD01120808B4BD0112080867
:100EE300FBBD01120808A7BF01120808BBBF01120E
:100EF3000808C5BF01120808EDBF01120808F9BFB1
:100F03000112080818C00112080838C201120808A3
:100F130087C301120808CBC30112080873C4011266
:100F2300080856C50112080801C6011208084DC772
:100F3300011208084BC801120808F1C80112080879
:100F430081C90112080898C901120808CFC9011202
:100F53000808D9C901120808E4C90112080802CA1D
:100F63000112080846CA01120808A3CA0112080898
:100F7300C8CA01120808E2CA011208086ECB01129E
:100F830008088BCC01120808F8CC01120808DFCD41
:100F93000112080806CE011208087ACE01120808C9
:100FA300F5CE01120808F9CF01120808EFD001129B
:100FB30008089ED101120808B1D2011208084DD3C6
:100FC30001120808DAD301120808B8D4011208087C
:100FD300F0D40112080848D50112080811D60112ED
:100FE300080832D601120808B9D601120808DDD65E
:100FF30001120808FFD60112080848D70112080891
:101003005ED90112080845DA01120808F6DA01125E
:1010130008082CDD011208087CDD01120808BCDD7C
:1010230001120808FEDD011208085ADE0112080841
:1010330088DE01120808ACDE01120808FFDE011287
:1010430008082DDF0112080866DF01120808BBDF5C
:101053000112080821E00112080875E101120808CD
:1010630098E30112080805E4011208082EE40112AE
:101073000808B9E40112080820E5011208086BE525
:10108300011208088FE501120808B3E501120808E8
:101093000EE60112080829E601120808E2E6011229
:1010A3000808D788041208081689041208087880EB
:1010B30002120808BE80021208089E810212080864
:1010C300A08202120808A383021208082F850212C5
:1010D30008088D85021208084A86021208086887E4
:1010E30002120808D9870212080815880212080894
:1010F3006388021208086D8802120808B188021278
:1011030008080D8902120808A88902120808258A0E
:1011130002120808F48A021208088D8B02120808CA
:10112300AD8B02120808E38B02120808148C02121A
:101133000808D58C02120808E58C02120808398DBC
:1011430002120808548D02120808668D021208085C
:101153006F8D02120808C98D02120808258E02122B
:101163000808718E021208088C8E02120808BD8EC0
:1011730002120808DA8E02120808E68E0212080824
:101183005A9002120808739002120808DA900212A9
:101193000808ED9002120808FB9002120808AF91AC
:1011A300021208089392021208089993021208087F
:1011B3002394021208082D94021208089A9402122A
:1011C3000808B19402120808E394021208081C9557
:1011D30002120808469502120808A7950212080889
:1011E300C79502120808E595021208082B96021209
:1011F30008085197021208089E9702120808CD9713
:10120300021208084398021208086B980212080891
:10121300A49802120808B298021208080A99021246
:101223000808599902120808989902120808C899DF
:1012330002120808F49902120808FF99021208081A
:101243001D9A02120808DF9A02120808E99A02128C
:1012530008082A9B021208087F9B02120808939B26
:1012630002120808A19C02120808B49C0212080882
:10127300C99C021208086B9D02120808EE9D021217
:101283000808AC9E02120808B79E02120808E39FE2
:1012930002120808FF9F0212080851A00212080850
:1012A30090A002120808A5A00212080807A10212C2
:1012B300080896A102120808E1A10212080832A444
:1012C30002120808B0A40212080825A50212080891
:1012D30047A7021208085FA70212080862A70212B2
:1012E30008086EA70212080882A7021208088AA734
:1012F30002120808BDA7021208086DA80212080806
:10130300E3A80212080856A9021208080AAA021240
:101313000808BFAA02120808DEAA0212080884AB52
:1013230002120808AFAB02120808B2AB0212080897
:101333001CAC0212080844AD021208081CAE0212CB
:101343000808A7AE02120808C0AF021208087DB051
:1013530002120808B6B002120808E7B00212080821
:10136300A5B102120808D5B102120808B0B20212E0
:10137300080849B302120808D4B30212080885B456
:101383000212080808B5021208083AB50212080842
:101393007BB50212080897F501120808FCF5011243
:1013A300080839F60112080888F6011208089EF8A1
:1013B3000112080881FA01120808EBFD011208085E
:1013C30026FE0112080848FE01120808ABFE0112AE
:1013D3000808DFFE0112080802FF011208082FFFA8
:1013E300011208088BFF01120808B1F30212080862
:1013F3002FF40212080865F402120808D1F402124D
:10140300080844F60212080860F602120808A5F656
:101413000212080833F7021208088CF702120808B0
:10142300B9F802120808CBF90212080828FA0212C6
:10143300080894FA02120808F5FA02120808BDD740
:1014430002120808E3FB02120808F5FC021208085E
:1014530020FD021208086BFD02120808B2FD0212F9
:10146300080844FE02120808FFFE021208080FFCD7
:10147300031208083FFC0312080894FC031208082F
:10148300F5E90312080870EA031208087BEA03125D
:1014930008089CEA03120808D7DF02120808049A16
:1014A30003120808509A03120808BE9A0312080888
:1014B300DF9A031208088F9B03120808239E031266
:1014C30008082C9E031208087F9E03120808A89E92
:1014D300031208080F9F03120808A09F03120808AD
:1014E300E29F031208082CA0031208088BA0031222
:1014F3000808B7A00312080848A10312080887A127
:1015030003120808C6A103120808FBA10312080866
:101513000DA2031208081FA2031208083EA2031219
:10152300080847A203120808FDA2031208083DA3F6
:1015330003120808B8850412080814F403120808F3
:101543004AF40312080893F403120808E3F503129C
:101553000808CE6A001208080D6C00120808496CCE
:1015630000120808086E00120808316E00120808FD
:10157300C470001208080871001208089172001262
:1015830008082973001208089173001208083274BE
:1015930000120808747400120808B47400120808D2
:1015A3003F7600120808AF7700120808D4790012BA
:1015B3000808027A00120808297A00120808327A09
:1015C30000120808B97A00120808D77D001208082B
:1015D3007E89041208089489041208088C8804126E
:1015E300080890E603120808A3E60312080840E778
:1015F300031208087BE70312080896E7031208089A
:10160300BBE70312080800E80312080831E80312D5
:10161300080862E803120808E8E9031208080080D2
:1016230004120808368004120808528004120808BD
:10163300948004120808A480041208083981041253
:1016430008084381041208085B8104120808F5CFD7
:1016530003120808ABD0031208085BD10312080871
:101663009BD1031208083AD20312080832D403129A
:1016730008088AE602120808DFE602120808C8E72B
:101683000212080861E802120808ABE8021208080F
:1016930008E9021208081CE9021208084EE90212BE
:1016A30008084CEA0212080890EA02120808ABEA9A
:1016B30002120808FAEA0212080810EB02120808DC
:1016C3001DEB0212080851EB021208086AEB021222
:1016D300080834EC021208088EEC02120808DCEC4D
:1016E30002120808FEEC0212080875EF021208083D
:1016F300AAEF021208083AF002120808AFF0021229
:101703000808B4F002120808F0F00212080846F1C3
:10171300021208080AF2021208082FF2021208083D
:1017230039F2021208083CF202120808C5F202124A
:101733000808E0F202120808F3F2021208082EF376
:101743000212080831F3021208083CF302120808D7
:1017530078F3021208087CFF0312080894FF0312AF
:10176300080854B503120808A3B50312080845B7BF
:101773000312080803B9031208084BB90312080837
:101783006DBA031208089EBB03120808C0BB0312FC
:1017930008081CBC031208089EBC0312080800803A
:1017A30003120808218003120808AB8003120808FB
:1017B300308103120808AC81031208081582031252
:1017C3000808618203120808E08203120808728382
:1017D30003120808FE830312080840840312080852
:1017E300AC88031208082C8A03120808028B031220
:1017F3000808318B031208081C8D031208089C8FFC
:10180300031208085590031208087291031208087E
:10181300C99403120808D994031208083A960312CC
:101823000808C69603120808EF9703120808E09801
:10183300031208086299031208081CE7011208083A
:10184300D6E70112080848E801120808E4E8011283
:10185300080854E9011208080DEC01120808E4EC29
:101863000112080851ED01120808CEEE0112080812
:1018730098EF0112080808F001120808D1F10112CB
:101883000808E4F2011208087DF30112080843F482
:10189300011208086CD803120808C0D803120808FC
:1018A30018D90312080863D903120808C5D903120B
:1018B300080831DA03120808E4DA0312080825DB02
:1018C300031208083BDB0312080897DB031208081E
:1018D300D5DB031208082EFA031208085FFA031275
:1018E300080819FB031208087FFB031208089BE38F
:1018F3000312080827E5031208088B860412080858
:101903009C86041208083C8704120808C4FD0312CD
:101913000808D2FD03120808BC8904120808F687D8
:10192300041208080688041208082188041208080B
:10193300828804120808B684041208083B8504123E
:1019430008089F8504120808A48304120808C683A4
:10195300041208083084041208083B84041208089F
:101963007F8404120808A2AC03120808B0AC031267
:101973000808F1AC0312080812AD031208088FAD72
:10198300031208088FAE03120808B1AE0312080849
:101993001DAF0312080838AF0312080853AF031230
:1019A30008085DAF0312080867AF031208087AAF8F
:1019B3000312080893AF031208082FB00312080894
:1019C300EBB00312080862B103120808DCB103127A
:1019D300080828B203120808CEB203120808AAB3F3
:1019E3000312080806DC0312080814DC03120808B3
:1019F3008EDC0312080872DD031208082BDF0312C2
:101A030008085C8904120808D2BC031208083EBD0A
:101A130003120808FDBD0312080807BF03120808D4
:101A230060C003120808BBC00312080810C10312E8
:101A3300080819C1031208082BC10312080895C12D
:101A430003120808A9C103120808B3C10312080846
:101A530084C603120808D9C603120808D5C803129E
:101A6300080807C90312080829C90312080842C94C
:101A7300031208085BC90312080865CA03120808A1
:101A830000CB03120808587E001208087C7E00125F
:101A93000808957E00120808C87E00120808F97E1F
:101AA30000120808277F00120808897F001208081F
:101AB300987F00120808A27F00120808AF7F001267
:101AC3000808C1EC03120808E7EC0312080824ED28
:101AD3000312080833ED0312080852ED0312080835
:101AE300BAED03120808C3ED0312080822EE03122D
:101AF300080846EE0312080805EF0312080812EF60
:101B03000312080823EF03120808208904120808A7
:101B13003D890412080877CB03120808D5CC0312B9
:101B23000808E2CC03120808F5CC0312080814CD08
:101B3300031208082ACD031208083ECD0312080831
:101B4300B3CD0312080818CE03120808C8CE031237
:101B530008089DCF03120808ADCF03120808BCCFB5
:101B6300031208085D870412080881870412080815
:101B7300A98704120808D1870412080851EF031239
:101B8300080878EF0312080899EF03120808FEEF1C
:101B930003120808B7F103120808D0F1031208086A
:101BA300DCF103120808F0F1031208080EF2031225
:101BB300080818F20312080822F20312080835F283
:101BC3000312080888F203120808C1F20312080876
:101BD300F0F2031208083EF3031208088DF3031210
:101BE3000808A8F303120808B2F303120808C3F3A2
:101BF3000312080809F40312080876FF0212080802
:101C030066A30312080890A303120808ACA30312E7
:101C13000808BFA303120808D5A30312080832A4B7
:101C23000312080865A403120808A1A803120808F0
:101C3300C7A903120808FAA90312080846AA03123F
:101C4300080872AB031208089AAB03120808AFAB7B
:101C530003120808BFAB0312080803AC03120808F9
:101C630064AC0312080874AC031208085E81041202
:101C73000808798104120808A28104120808BC81AB
:101C830004120808E18104120808008204120808FB
:101C9300188204120808468204120808608204129B
:101CA3000808B97F0012080890DF0312080897DFBD
:101CB30003120808A3E003120808D3E0031208087C
:101CC300F9E0031208081CE1031208083EE10312BD
:101CD300080878E103120808DEE10312080817E296
:101CE3000312080863E20312080890E203120808CB
:101CF300B0E20312080846F8031208085EF803125C
:101D030008084CF9031208082BFA031208089182F9
:101D13000412080803830412080841830412080804
:101D230082830412080846F60312080871F60312A8
:101D3300080885F60312080817F803120808ABD43D
:101D430003120808CAD40312080819D50312080895
:101D530035D50312080866D50312080873D5031294
:101D6300080880D5031208086CD603120808AAD6FF
:101D730003120808BAD703120808C5D703120808C4
:101D8300D7D703120808E0D703120808EAD70312CB
:101D93000808C7C1031208080CC6031208081AC6AC
:101DA30003120808C9FF03120808C7FF0212080834
:101DB300D7FF011208089E890412080886D602126A
:101DC3000808DAD50212080820D402120808D0D174
:101DD3000212080857D102120808FED0021208089E
:101DE3008ED00212080865D00212080845CE0212EE
:101DF300080811CE02120808DECD02120808C2CD6F
:101E030002120808DBCC0212080893CC021208085D
:101E1300DECA021208085ECA021208085BCA02126E
:101E2300080858C90212080826C90212080863C81C
:101E3300021208088EC6021208081FC602120808FA
:101E4300BBDF021208083FDF02120808F6DE0212A7
:101E53000808AEDE02120808FCDD02120808F1C50C
:101E630002120808EEC502120808DBC502120808B0
:101E730086C5021208086EDD0212080875C5021233
:101E8300080867C40212080831C402120808DFC335
:101E93000212080861DD02120808FA990312080801
:101EA30080C3021208084FC30212080817C00212A7
:101EB3000808D7BF02120808CBBF021208082BBFBD
:101EC300021208086BBE02120808EDBB02120808D2
:101ED3007EB9021208083CB90212080810B80212AF
:101EE3000808C5B70212080804B702120808D7B6D3
:101EF300021208081AB602120808B0B5021208083E
:101F0300EAB5021208085BDA0212080836FB02007F
:101F1300000080FBE47300000000000000000000EC
:101F230000000000000010101010101000003030EE
:101F33000000001428500000000000000000000012
:101F43000000002828FC284850FC505000000000E6
:101F530010385454301814545438100000000044FE
:101F6300A8A8B0541A2A2A440000000000205050A8
:101F730060ACA898927C000000606020C000000064
:101F830000000000000000040808101010101010DA
:101F93000808040000004020100804081020400036
:101FA30000000000001010D63838D61010000000D2
:101FB300000000101010FE101010000000000000C0
:101FC3000000000000000000606020C0000000006E
:101FD3000000FC0000000000000000000000000002
:101FE3000000000060600000000204040408081000
:101FF3001020202040000000003048848484848422
:102003004830000000000010701010101010107CF9
:10201300000000000038444404081020447C000001
:10202300000000384444180404444438000000000D
:10203300080818284848887C081C00000000007C19
:10204300404078440444443800000000003C44808D
:10205300B8C48484847800000000007C44480810DD
:1020630010101010000000000078848448788484E5
:1020730084780000000000788484848C740488F0E1
:10208300000000000000003030000000303000008D
:1020930000000000000010000000001010200000ED
:1020A3000408102040201008040000000000000075
:1020B30000FC0000FC0000000000000040201008AD
:1020C3000408102040000000000078848484081075
:1020D30010003030000000000038449AAAAAAAB4C5
:1020E300423C00000000001010282828384444EE29
:1020F3000000000000F844447844444444F80000DD
:102103000000003C4484808080804438000000004C
:1021130000F048444444444448F00000000000FCFC
:1021230044404878484044FC0000000000FC424022
:102133004878484040E000000000003C4484808030
:102143008E8444380000000000EE4444447C444440
:1021530044EE00000000007C101010101010107CE2
:1021630000000000007C101010101010101090E000
:10217300000000EE44485070484844EE0000000060
:1021830000E040404040404044FC0000000000EEBE
:102193006C6C6C54545454D60000000000EE64641C
:1021A3005454544C4CE400000000003048848484B0
:1021B300848448300000000000F8444444784040E0
:1021C30040E00000000000304884848484B4483830
:1021D3000C00000000F844447850484844E60000EE
:1021E3000000003C44402018040444780000000030
:1021F30000FE92101010101010380000000000EEC6
:1022030044444444444444380000000000EE444441
:102213002828282810100000000000D654545454D5
:102223006C2828280000000000EE442828102828E5
:1022330044EE0000000000EE44282810101010386F
:1022430000000000007C88081020204044FC0000AF
:10225300001C101010101010101010101C00007033
:1022630010101010101010101010700000701010CB
:102273001010101010101010700000102800000033
:10228300000000000000000000000000000000004B
:102293000000000000FE00606020C000000000009D
:1022A3000000000000000000000038441C24443EED
:1022B3000000000000C040407844444444780000DB
:1022C3000000000000003C4440404438000000008F
:1022D300000C04043C444444443E0000000000005D
:1022E300000038447C40443800000000001C2420D7
:1022F300F8202020207800000000000000003C4867
:10230300483040784438000000C04040586444449A
:1023130044EE000000000010000070101010107C4C
:1023230000000000000800003808080808080870CA
:10233300000000C040405C48507048EC00000000C2
:102343000070101010101010107C0000000000002E
:102353000000F854545454D600000000000000005C
:10236300D864444444EE00000000000000003844F8
:10237300444444380000000000000000F844444492
:10238300447840E00000000000003C444444443CE6
:10239300040E000000000000EC30202020F80000B4
:1023A3000000000000003C443008447800000000B6
:1023B300000010107C101010100C00000000000032
:1023C3000000CC444444443E0000000000000000F0
:1023D300EE44282828100000000000000000D65416
:1023E300545428280000000000000000DC4830306E
:1023F30048EC0000000000000000EE442828101004
:1024030020E00000000000007C481010247C000045
:1024130010101010101010101010101010100001D8
:10242300363601010001020100010301000104012C
:10243300060605020000070100340801000F090425
:1024430001010D0100FF0E08000017020000190131
:1024530000FF1A0100011B0100FE1C0100081D0200
:1024630000001F01000120010001210200002301DF
:10247300000F2402000026010001270100082802A2
:1024830000FF2A0100072B0102402C0100002D014F
:1024930000012E0100012F0100FF30010B1C310848
:1024A30000003A0100083B01000F2F010000010169
:1024B3007101010101011101010131010101010159
:1024C3008001100161013B0014006301730172017B
:1024D300620143010001130106013D0135000401BE
:1024E3001201000100010001000104010401330194
:1024F30033013C0144013201360000010001650152
:102503000001350081010001050182018301000101
:102513000302710230016002110270020102020221
:1025230002028002100261023A0041006302730258
:102533007202620243020002130238000002000228
:10254300040212020002000200020002040204025A
:10255300370037003C024402000239000002000247
:102563006502000235028102000205028202830233
:10257300000203007100300160001100700031029D
:102583002003500480001000610000001400630069
:102593007300720062004300000013000600000095
:1025A300000004001200000000000000000004000E
:1025B3000400370037003C02440000000000000024
:1025C30000006500000035008100000005000000E8
:1025D30083000000010371030103010301030103ED
:1025E300010322030203010310030003000300039A
:1025F3000003000300030003420300032403060354
:102603000003000304031203250323032503230309
:102613000403040300030003000344030003000353
:10262300230300036503210035038103000305032E
:102633000003000300030304710402046004110493
:10264300700402040204010402041004610400047F
:102653001404630473047204620443040004130443
:10266300060400040004040412040004000400042B
:102673000004510464000004000400044404000442
:1026830000040004000465040004350481046400AC
:102693000504000483040004C9EEDBDACAD0B0B237
:1026A300C1AAB5C2BFC6BCBCD3C3BBA7B5C7C2BC56
:1026B300D5CABAC5C3DCC2EBC8B7B6A8C8A1CFFB9D
:1026C300D7A8D2B5D7A8D7A2CEDECFDFCDA8D1B6B3
:1026D300B3CFD0C5C1A2D7E3B4B4D0C2D6C2D4B6A7
:1026E300C7BFB4F3D4ADA3BA00360001000600009F
:1026F300000F0000000000000000000000000003C5
:10270300FFFF00000403FFFF0000FFFF0FF40100C1
:1027130005C4040320000100030B000000000000B7
:10272300000003010F000052181300F217010052BA
:10273300180200BC170300C2170400C8170500CE17
:10274300170600DA17FFFF000001E40D06140E0858
:102753000E0E0B200E10600D02EA0D05020E07F09F
:102763000D0CC60D0DD80DFF000003EAF5E5D5D518
:10277300C5B5A595958585757565655555454535E6
:10278300352525151505EC111C12F211F811161239
:102793000A120412221228122E123A12FE11E61104
:1027A300E01100160F00000B150B020002220F327E
:1027B300000006D612E812EE12B611F412B011BCE4
:1027C3001130134E135413361342133C13F010EA13
:1027D3001026112C112011D8100C0E020B040B0A19
:1027E3000708000F00383C3E363B3B352B432C009B
:1027F3000119161816161523030000034948424D04
:102803001817250502303017181921301B1D1F30EA
:10281300303016181920231A1C1E302413FA120004
:10282300130C1306131012341248134012461202EB
:102833000402010101010902FC100211F610321118
:1028430000000000000008111A1100BE040A0E0067
:1028530004007F00E8030C002800000000000903C7
:1028630008100C0A03080900040001FF1E1E0C05D2
:102873000408100FC082C0838A828B83E0D2E7F002
:102883001217200239EEC082C0837900122D431241
:102893005A5AC082C0839003341247E0D083D08257
:1028A300C3E09CA3E09D500C12612EFAA3E0122812
:1028B300BA6001090239EEFBEA75F00BA4FAA8F03D
:1028C30075F00BEBA428FB900336E02AF8A3E03B5A
:1028D3008882F583E0540F2274F712037389081278
:1028E3002D43122DE9ACF075F00BE9A42CF99003FC
:1028F30036E028FEA3E039FF740165086006740220
:10290300650870208A828B83122DD5123ABC74021B
:102913006508701B122C94122E1C70138E828F83E9
:10292300E4F0800BEA2403FCEB122DB7122DC3EE67
:10293300FAEFFB120AF0023A2674F4120373126AD6
:102943005579008E828F83E06076890A890B8065D2
:10295300E50A75F00BA4FAA8F075F00BE50B122845
:10296300C77046E50A75F00BA4F8AAF075F00BE5FD
:102973000B122DFB8E828F83E085088285098312DB
:102983002EDD850882850983A3123ABCEE2403FC5D
:10299300EF122DC01239F51254D4AA08AB09120A4A
:1029A300F07901900334124EE9E50A2401F50AE5B2
:1029B3000B3400F50B122C9CE50A9AE50B9B409017
:1029C300023C6674F5120373EAFEEBFF740B120A02
:1029D300B91239FA750A01EC4D602BEC126A71EDEC
:1029E300125A5A123AB47901120AFCE508450960F1
:1029F3006F850882850983A3126A5F7902AA08ABEF
:102A030009120AFC805AE5084509602B125A5E1226
:102A130041281239F6122E06700CEEFAEFFB120B58
:102A230002E9F50A80CBEE2403FA122D3E703179C8
:102A330003EEFAEFFB80CA8E828F83A3E064FE70FD
:102A430003A3E0F4700BEE24030A0A0A122D3E706E
:102A53000CEEFAEFFB120B02E9F50A8003750A008C
:102A6300A90A7F0302058D74F712037390033412CE
:102A73003A36EA4B602FEA75F00BA4FAA8F075F02A
:102A83000BEBA428FBEAFEEBFF121546900336126C
:102A93003A36900336124D2E6012EEFCEFFD7900AC
:102AA3001214AA8007900336E4F0A3F0023A2690AA
:102AB3000334124498C3EE98EF9922C082C083EC8A
:102AC3004D6005121D2080097C087D0079001214D9
:102AD300AA0239EE74F61203737900EA4B60187890
:102AE300008808125DA1EB12612A6004790178085D
:102AF30008E8C3940840EA023AC574F712037374F2
:102B0300F31208E7ECFEEDFF851882851983E4F0E4
:102B130004120AB9EAF0A3EB12525A7403120AB967
:102B2300AC82AD83EEFAEFFB120B14EEFAEFFB125D
:102B33000B1A023A2174F712037374F31208E7ECC9
:102B4300FEEDFF851882851983E4F0EAFCEBFD7442
:102B530003120AB9122ED67401120AB9123AB08EB0
:102B6300828F83123ABC74FE68700374FF69600439
:102B7300790180027900023A2174F7120373EAFEA5
:102B8300EBFF122BDA7014122BE58E828F83E0F4A5
:102B9300F88A828B83E058F0120AF0A908023A26D9
:102BA30074F7120373EAFEEBFF7508008E828F83BE
:102BB300E06022122BDA701D122BE58A828B83E0F0
:102BC3008F838E82F8E058700CE0F88A828B83E062
:102BD30048F0120AF080C4120AF6E9F50874016598
:102BE3000822126A6A122DED122D2FFAA3E039FB87
:102BF3002274F41203738A088B097C007D00122C63
:102C030094122DC3122D54126A5C790085088285B3
:102C13000983A3E064FE7003A3E0F460717E007F88
:102C2300008062EEFAEF1228BA6057EEFAEFFBEA81
:102C330075F00BA4FAA8F075F00BEBA428FB900336
:102C430036E02AF50AA3E03BF50B85088285098364
:102C5300A31251A8850A82850B83A3E06A7003A39C
:102C6300E06B701EE50A2403FAE50B122D3F700A90
:102C7300E50A2403FCE50B122DC0122D487901123D
:102C83005A70123633122C9CEE9AEF9B4095023CFD
:102C930066EA24030A0A0AEB22900334125647C356
:102CA3002274F31203738A088B098A828B83A3121B
:102CB3006A5F122D43126A5C750C00122C94122D5C
:102CC3003F70547E007F008049122D21FAA3E03922
:102CD3008A82F583E0540F6036122D21F50AA3E0B2
:102CE30039F50BE50A2403FCE50B122DCA3400FB6E
:102CF300121D1AE964017017850A82850B83A312DA
:102D03005708A3123ABC122D48750C01125A7012BF
:102D13003633122AB240B2A90C7F0502058DEEF8B4
:102D2300EFF9E875F00BA4F8122D2F22AAF075F035
:102D33000BE9A42AF9900336E02822EF122E16227B
:102D4300126A70EB22122D54125A6BEEF0A3EFF0BD
:102D530022E508126A71E5092274F5120373EAFE8B
:102D6300EBFF8E828F83A3126A5F7C007D00EE24CB
:102D7300030A0A0AEF122DC3EEFAEFFB120AF6E971
:102D8300F50A7401650A7029126A6A122DE9AAF01C
:102D930075F00BE9122DFB850882F583122DD512F0
:102DA3002E06700DE5082403FCE509122DB7122D3C
:102DB300C3022A633400FDEE2403FAEF22122DCA64
:102DC3003400FB120B14223400FDE5082403FAE55A
:102DD3000922A3122DDA22122DDE22E0F8A3E0F954
:102DE3008E828F83A322122DED223400F5831244A9
:102DF3009CE875F00BA4F822122D35F508A3E039F1
:102E0300F50922E8F0A3E9F0E5082403FAE509123D
:102E13002E1622122E1C6401223400FB120B1AE917
:102E23002274F312037374E61208E7126A55750CE1
:102E330001750800750900750A00750B0085188275
:102E4300851983E4F0EE2403FCEF3400FD740312D0
:102E53000AB9122ED6E964017023740B120AB9124F
:102E63003AB47401120AB91251AC7003A3E0696059
:102E730051851882851983858208858309740D120B
:102E83000AB9E4122EDD740E120AB9123ABC740D9B
:102E9300120AB9AA82AB83120B38E96401700B746E
:102EA3000D120AB985820A85830B780A120825ACAC
:102EB30008AD09EEFAEFFB120B08740212086DE974
:102EC300F50CEEFAEFFB120B32A90C741A12086D13
:102ED300022D1C1231A9120B3E22123A31124498D0
:102EE30022C082C083780079008003122FD4122C71
:102EF3009CE89AE99B5029E8FAE9FBEA75F00BA4F0
:102F0300FAACF075F00BEBA42CFB900336E02AFC33
:102F1300A3E03B8C82F583E0540F70CF79008002ED
:102F230079010239EEC082C0839004EE1244EEECC4
:102F330075F012A4FCA8F075F012EDA428FD79FF3A
:102F43007A2A7B0B1214AA0239EE74F7120373E97F
:102F5300FEEAFF7A007B00780079008028E8FCE92C
:102F6300FDEC75F012A4FC85F00875F012EDA425B4
:102F7300081233E9C39E400AE0FCEFC39C400312EE
:102F83003508122FD41233DD40D3023A26C082C053
:102F930083780079008003122FD4122FC8501F1298
:102FA30033EDF470F2E875F012A4F8AAF075F0129C
:102FB300E9A42AF9742A28FA740B39FB80047A00ED
:102FC3007B000239EE9004EE12349EC3E89AE99B2B
:102FD30022E8240108E93400F92274F0120373741F
:102FE300F31208E78A0A8B0B8C0C8D0D8908EC45CC
:102FF3000D6016AA0CAB0D120B8C8A0E8B0FAE0E46
:10300300AF0FEE4F600302309B120B628A0E8B0FE1
:10301300A80EA90FE8FEE9FFE849607C90285F123B
:1030230030FD602274036508600674046508701639
:103033007A047903120B5C90285F12311440077AEB
:10304300007B000230FA90285D1230FD601B740192
:103053006508600674026508700F7A027901120B25
:103063005C90285D12311450D685188285198374BB
:1030730001F0120AB91254D4AC0CAD0D7403120A48
:10308300B91231A2740B120AB9123A02123E9CE42D
:103093001254BC1210308004EE4F604A780074FF63
:1030A3002508C39404500278048E828F831254D46B
:1030B3008E828F83A3A3A3A3E508F0E88E828F8378
:1030C300A3A3A3A3A31254DC1202221234B58E824B
:1030D3008F83A3A3A3A3A3A3A3F01234AC120A96D2
:1030E300125A54120AA21231024005901086E4F0DB
:1030F300120F0AEEFAEFFB0244A21255F649227AA6
:10310300047900120B5C9004EE126110EA98EB99BB
:103113002212312D7583047582EEE493C398F8A3CC
:10312300E49399F9C3EA98EB9922E493F874019331
:10313300F92274F212037374F31208E78A088B09F5
:10314300ECFEEDFF750A00EEFAEFFB120B8C8A0C16
:103153008B0DA80CA90DE849603E88828983E06540
:10316300087004A3E06509602F88828983A3A3A361
:10317300A3E0C3940550211259028518828519834F
:103183007401F0120AB9125906EEFCEFFD74031232
:103193000AB91231A2750A01A90A740D024FA012CD
:1031A30031A9120B4A22AA82AB83120B148518820F
:1031B300851983AA82AB832274F61203731231F743
:1031C300600FA3A3A3A3E014C39404500479018064
:1031D300027900023AC574F61203731231F7600FD5
:1031E300A3A3A3A3E014C39402500479018002793A
:1031F30000023AC5120B868A828B83E582458322BD
:1032030074F61203731231F7600BA3A3A3A3E07048
:1032130004790180027900023AC5C082C083EAFCC6
:10322300EBFD7A007B000239EBC082C0837C007D1A
:10323300000239EB74F412037374F31208E7EAFE25
:10324300EBFF8C0A8D0BC3EC94F8ED94FF4007EE73
:103253004F70030232F0750800750900802E85183F
:10326300828519837401F012365B120AB91236692A
:1032730060137403120AB9AC82AD83EEFAEFFB124A
:103283001D1AE97049E50824011234899004EEE41B
:103293001255FEE50898E509995052E50875F012B4
:1032A300A4F8AAF075F012E509A42AF912614360A3
:1032B300D4EE4F70A974FF650A700474FF650B6048
:1032C300C412364B650A7004A3E0650B70B7E508BA
:1032D30075F012A4F508A8F075F012E509A428F515
:1032E30009742A2508FA740B3509FB80047A007BDC
:1032F30000023C6174F412037374F31208E7750857
:1033030000120B8C8A0A8B0BAE0AAF0BEE4F602AAE
:103313008518828519837401123A2BF8A3E0F97496
:103323000B120AB9123B3F120B2C7C127D0079FF62
:10333300EEFAEFFB1214AA7508011231025009903C
:1033430010867401F0120F0AA908023C6174F71287
:103353000373E9FE74FE6A700374FF6B78007900EF
:1033630070058052122FD41233DD504AE8FCE9FD78
:10337300EC75F012A4FCAFF075F012EDA42F12332C
:10338300E9F460E0E8FCE9FDEC75F012A4FC75F0EB
:1033930012EDA42FFD742A2CF582740B3DF583E006
:1033A3006A7003A3E06B70BC80091233ED14C394FD
:1033B300044017122FD4122FC85018EE70EC12339A
:1033C300ED64016005E0640370E912363CFAA3E0A2
:1033D300FB80047AFE7BFF023A269004EE1244F24D
:1033E300C3E89CE99D2212353D22E8FAE9FBEA7520
:1033F300F012A4FAACF075F012EBA42CFB742E2A95
:10340300F582740B3BF583E022120B9E0239EEC06A
:1034130082C083790180F274F01203738A0A8B0BE2
:103423007A047901120B5C8A0C8B0DEA450D603E20
:10343300EAC333FAEB33FB1215468A088B09AE084D
:10344300AF09EE4F60237AFE7BFF120BA474FE6A72
:10345300700374FF6B601B850882850983123A36FB
:10346300E508240212348980E1750C0080047E0093
:103473007F00850A82850B83E50CF0EEFAEFFB02F1
:1034830044A7E5082407F508E5093400F509229067
:1034930004EE1244F2C3EA9CEB9D22E493FA740116
:1034A30093FB2212149E740322125A65E4F0908651
:1034B3001822E88E828F83A3A3A3A3A3A3A3A3129B
:1034C30034D774011234D7A3F0EE2410125A68E4EF
:1034D300F0A3F022123EA8A3A3A322C082C0837A42
:1034E300007B0080041912350812349250101235F3
:1034F30027C3940550F0E970EC12351180047A006B
:103503007B000239EEEA24010AEB3400FB22EA7560
:10351300F012A4FA75F012EBA428FB742A2AFA74A9
:103523000B3BFB22EAFCEBFDEC75F012A4FCA8F0CC
:1035330075F012EDA42812353D22FD742E2CF58270
:10354300740B3DF583E02274F712037374F31208CE
:10355300E77E007F000235EFE50875F017A4F8A9B0
:10356300F01263A4FAA3E0FBEEF8EFF9E875F012AA
:10357300A4F8ACF075F012E9A42C12364A6A700371
:10358300A3E06B603FE50875F017A4F8AAF0EA1210
:1035930063A3F8A3E0F97401120AB9E0687003A306
:1035A300E0696020E50875F017A4F8EAF974A62825
:1035B300FC740C39FD7403120AB9AA82AB83121D81
:1035C3001AE96014E50875F017A4F8A9F074A428A3
:1035D300FA740C39FB12103C0508902864E493F844
:1035E300E508C398500302355B1236339004EE129C
:1035F30066EA5039EEF8EFF912363CF47003A3E0B3
:10360300F460E68518828519837401F0EEF8EFF90A
:10361300E875F012A4F875F012E9A42AF912365BE2
:10362300120AB912366960C175080080AD023A21E9
:10363300EE24010EEF3400FF22E875F012A4F8AA7D
:10364300F075F012E9A42AF912364F22742A28F5EC
:1036530082740B39F583E022742C28F582740B39BC
:10366300124496740B22E8F0A3E9123B47120B4471
:10367300E922C082C08390033D74FCF0A3740DF073
:1036830090033F74F6F0A3740DF09003437416F0A7
:10369300A3740CF00239EE74F7120373EAFEEBFF26
:1036A300900377E06408601BE0640460168E828FE9
:1036B30083E05403640170481239F5123F9DE064BE
:1036C30006703D8E828F83A3A3E064FE7003A3E0A4
:1036D300F4602D8E828F83A3A3123AB0900368E027
:1036E300687003A3E069700BEE2415F582EF126195
:1036F3002A6008120EAAE9F5088008120EB080F6B7
:103703007508C2EEFAEFFB12154C022B9E74F412ED
:1037130003738A088B098A828B83E0F8A3E0FAE8B3
:103723002AFAE43400FB1215468A0A8B0BAE0AAF61
:103733000BEE4F6063850882850983E0FC7D007989
:10374300001214AA8E828F83A3A3126A5F120EEC57
:103753008E828F83A3A3A3A3123A36850882850999
:1037630083E0F8EE28F8EF3400123AB88508828532
:103773000983A3E0C0E0EE240D125A57D0E0F01203
:103783000EFEEE240E125A57E9125109E0C0E0EE84
:103793002411125A57D0E0F0EEFAEFFB023C6674A4
:1037A300F612037374EB1208E7EAFEEBFF124D2BDC
:1037B30060030238467A077B0012154690033912DC
:1037C3003A36124D2B60788E828F83120A969003BD
:1037D3003A123FA0120AA2126923C0E0123852D053
:1037E300E0F0EE2405FAEF3400FB8A088B098A82A5
:1037F300F583E0C0E012384DD0E0123C5DE0C0E05C
:1038030012384DA3D0E0123AA2120A968518828587
:103813001983120AA288828983E0C0E07405120A20
:10382300B9D0E0F0850882850983E0C0E074041212
:103833000AB9D0E0F07407120AB912398880067900
:1038430010800279017415023AC2123852A32290F1
:103853000339E0FAA3E0F5838A82A3A3A3A322C0DA
:1038630082C083124D2B600D90033912563590039D
:1038730039E4F0A3F0120E1A120FDC0239EE74F0E1
:1038830012037374EB1208E7ECFEEDFF890874254D
:10389300120AB9780C120A5C7429120AB9E0F97495
:1038A3002A120AB9E0FC742B120AB9E0FD740F69FD
:1038B3007005740F6C60129010DAE0640270057981
:1038C300C1023983E9C39C40F6900378780C120A4D
:1038D3007AE50890037EF0E990037CF0ECA3F0ED29
:1038E30090037FF074FF6A700374FF6B701D901078
:1038F300E5E0F47003A3E0F470051214BC800C90AF
:1039030010E5123A0BE8F0A3E98007900375EAF09B
:10391300A3EBF0EE4F6017EEFAEFFB12109CE96495
:1039230001700BEEFCEFFD7A897B03121D209003DF
:1039330068E4F0A3F090036BF0A3F0900388F09099
:1039430010DAE06402700890037C740FF0A3F09027
:1039530003777405F014120AB9E4F0900378120A9D
:1039630096851882851983120AA290037EE0C0E02F
:103973007405120AB9D0E0F07407120AB912398833
:1039830074150244A4E4123B47121D6222C082C094
:1039930083900338E070031217EC120BE6804CC0DF
:1039A30082C083900338E09010857004E4F0802D8A
:1039B3007401F0900338E0F460237C41E0C3944148
:1039C3005002E0FCECF8E0C398F0EC75F0E8A4CC0E
:1039D300A8F075F003A428FD7A801244FA7A857B57
:1039E300107941121D508003120B92D083D08202B2
:1039F3000805EE125A6622E0F508A3E0F509221243
:103A03003A0622122DDEA3221244989003752274E3
:103A1300F7120373EB90037FF0120E088005740D09
:103A230012086D7F0102058D123A31A3E022123A8A
:103A3300A2A322EAF0A3EBF02274F712037374F843
:103A43001208E7EAFEEBFF7900900377E064087061
:103A53004485188285198374FDF0A374FFF0120E58
:103A6300E67402120AB9123A367405120AB9E4125C
:103A73003A31E0C0E07404120AB9D0E0123A9DC0B2
:103A8300E07406120AB9D0E0F07407120AB9E4121E
:103A93003B43120F287408023A23123AA2E022F0A1
:103AA3008E828F8322F0851882851983221244988F
:103AB30022E0F8A3E0F9125A65E8F0A3E9F0221234
:103AC300086D7F0202058DC082C08390034974A6EE
:103AD300F0A3740CF09003EF7482F0A3740FF090D2
:103AE300034D74DCF0A3740CF090034F74A6F0A3A1
:103AF300740CF090035174E2F0A3740CF00239EEED
:103B030074F412037374F91208E78A088B098C0A98
:103B13008D0B8518828519837808120A7A7404122A
:103B23000AB9E9F07405120AB9E4F07406120AB985
:103B3300E4123B43120BCE7407023C63E8F0A3E9A3
:103B4300123B4722123AA8AA82AB832274F41203CF
:103B5300738A088B098A828B83125A73EE4F700320
:103B6300023C5B900312124D2E60158A828B83A355
:103B7300A3E0F9EEFAEFFB900313123FA0121F1715
:103B83008E828F83A3A3A3A3A3A3A3A3A3E064020F
:103B930070748E828F83A3A3A3A3A3A3E0540270A4
:103BA30003023C2D850882850983A3A3E064E960B1
:103BB300798E828F83A3A3A3A3A3A3A3A3A3A3E029
:103BC30070149010DDE0048E828F83A3A3A3A3A3BC
:103BD300A3A3A3A3A3F08E828F83A3A3A3A3A3A3CF
:103BE300A3A3A3A3E014123C5DA3A3A37404F090C6
:103BF30010DE1254AEE8F0A3E91265878B0BEA4599
:103C03000B7003125F658E828F83A3A3A3A3A3A369
:103C1300A3A3A3E0640260128E828F83A3A3A3A352
:103C2300A3A3A3A3A3E06406702E8E828F83A3A312
:103C3300A3A3A3A3E0A2E0501F850882850983A361
:103C4300A3E0F9EEFAEFFB121DF88E828F83A3A394
:103C5300A3A3A3A3E054FEF08009123EA422740D93
:103C630012086D7F0402058D74EC12037374DD1268
:103C730008E7EAFEEBFF8C088D097437120AB9785E
:103C83000C120A5C750A007405120AB9AC82AD8382
:103C9300120ACC7412120AB9E070087415120AB928
:103CA300E060207405120AB9E0A2E6501E8E828FEE
:103CB30083A3A3A3A3A3A3A3A3A31251A8120F5E39
:103CC300E960087903121D08023E8A7405120AB9D5
:103CD300E0540C64047005750B018003750B00E060
:103CE300A2E55035750A01E50BA2E0402C120EEC5B
:103CF3008A108B11A810A9111239F5E0687003A37B
:103D0300E06960157405120AB9126A661251A412A9
:103D13001E04E96004790480AC7405120AB9E0A2B8
:103D2300E650227406120AB9E0540370187405129F
:103D33000AB9E0540C640C600CE0540C6408600590
:103D430075100180037510007405120AB9E054035D
:103D5300F8740268700C126A661251A4120ADE0229
:103D63003E8A740168703AE510A2E05003123E9255
:103D73007405120AB9A882A9837403120AB9E8F078
:103D8300A3E912448C851882851983123E9CE0C0F6
:103D9300E07402120AB9D0E0123B43121EE8023E5D
:103DA3008AE86003023E8A90035FE0640170108E2C
:103DB300828F83A3A3A3A3A3A3E07003023D18747C
:103DC30022120AB9740212448C741A120AB9123AF2
:103DD300BCE510A2E050087405120AB9123E92E540
:103DE3000BA2E0506AEE240FF582EF12612AC0E0C5
:103DF3007417120AB9D0E0F0900314124D2E700319
:103E0300023E8A120EEC8A128B13A812A913741A9B
:103E1300120AB9E0687003A3E069706B780C1208AA
:103E23001D780A1208297808120825A910740C12A3
:103E33000AB9AC82AD837421120AB9AA82AB83900A
:103E43000314123F9D121F17740712086D803878F0
:103E53000C12081D780A1208297808120825900305
:103E63007512065CEE2412F582EF125E587423126B
:103E73000AB9AC82AD83740E120AB9AA82AB83125B
:103E83001DEC740912086D742312086D0265521239
:103E93006A66125643120AD222E8F0A3E9123EA43C
:103EA30022123EA822F08E828F83A3A3A3A3A3A3EF
:103EB3002274F71203731216D8023A2674F7120308
:103EC300731216DE023A2674F71203731216EA020D
:103ED3003A26C082C0831216E40239EE74F7120345
:103EE300731216F0023A2674F71203737409120A56
:103EF300B9E0F50878081208291216FC7401023A91
:103F030023C082C0831217080239EEC082C0831215
:103F1300170E0239EE74F7120373121714023A26BE
:103F230074F7120373EAFEEBFF89087401650870E6
:103F3300147900120D1E90286FE493FC7900EEFAB9
:103F4300EFFB120C94023A2674F412037374F91201
:103F530008E7E9FE8A088B098C0A8D0B7413120A91
:103F6300B91251A890059D124D2E6027EE85188237
:103F7300851983F07401120AB97808120A7AEAF8EB
:103F8300EBF97405120AB9123B3F90059D123F9D50
:103F9300121F17023B3AFB90034BE0F8A3E0F583B3
:103FA300888222C082C0831217440239EE74F7124A
:103FB3000373901088E0F97E00800B126116540D94
:103FC30064017001190E1241AA5003E970ED023A1F
:103FD3002674F7120373901089E0F97E00800B12A8
:103FE3006116548D64817001190E1241AA5003E9C0
:103FF30070ED023A2674F2120373890BE975F00629
:10400300A4240CF508E5F012348D8A0CE508250C80
:10401300FAE5093400FB1215468A0C8B0DAE0CAF82
:104023000DEE4F6027AC08AD0979001214AA1239BE
:10403300F5E50BF0EE2508F8EF3509F98E828F834D
:10404300A3A3A3A3A3A3A3A3A3123ABCEEFAEFFBD8
:10405300024FA374F6120373EAFEEBFF120C709087
:104063001087E0F8E9C39840099003451251A8125C
:104073000C76EE2402F8EF1257B8900347125672EB
:10408300900347E004F0EEFAEFFB120C7C85088204
:10409300850983E0025C6EC082C08379009003458A
:1040A3008001091251A88A828B83E582458370F2CD
:1040B3000239EE74F7120373EAFEEBFFEE4F60561C
:1040C300900345124D2E604E888289837A007B00CF
:1040D300EE65827003EF6583600FAA82AB831241A2
:1040E3001CE5824583602F80E790034512412868D1
:1040F3007002EF698E828F837008123AB090034585
:104103008003126564123ABCEEFAEFFB121EB8EE9E
:10411300FAEFFB12154C023A261241202212449C5C
:104123008882898322124498EE22C082C08390033E
:1041330045800488828983124D2E600B888289838F
:104143001247E0EC4D70EC8A828B83E4F0A3F0E835
:10415300496006888289838003900345123A3602B8
:1041630039EE74F712037390034580048A828B83BC
:104173001241A54B60257E0080010E1241AA50EC2E
:10418300EE75F006A4FCADF0EA2CFCEB3DFDEC244F
:1041930010F582ED1241FA70E180047A007B00028F
:1041A3003A26125647EA22124203EEC3982274F7C4
:1041B3001203737D0080010D1241FFEDC39850344B
:1041C300ED75F006A4FEA8F0E8FFEA2EFEEB3FFF34
:1041D300EE2410F582EF1241FA70DCED75F006A4BF
:1041E300FEE8FFEA2EFAEB3FFBEA2411F582EB121D
:1041F300612A4CF0023A26126136692212420322E6
:10420300126A70EB3400F583E0F82274F61203733C
:10421300120D967A007B008025EAF8EBF9E875F039
:1042230006A4F8ACF075F006E9A42C12561C12692A
:1042330031A3E4125712F0A3126937126AAE902821
:104243005912310C40D37A007B00801C8A088B09F9
:104253007403780812099C1250D0A374FEF0A304CF
:104263001254F2A3E4126AAE9028631242AD40DC0A
:104273007A007B00801D8A088B0974037808120971
:104283009C74CC125DA2740F1265E974FEF0A30452
:10429300126AAE9028691242AD40DB90286DE49318
:1042A300900353F01242B7023AC5E493F8C3EA9875
:1042B300EB9400227CE87D037A107B009003C2E03C
:1042C300F91216002274F012037374F51208E78AC8
:1042D300088B09890A8C0BE9A2E050147508FC7558
:1042E30009FFA2E15005D2E402438AD2E302438AE2
:1042F300124F8F7003A3E06970057900024457AC35
:104303000A7902AA08AB09120D72E960EDE50AF514
:104313000C780C12082979027CFE7DFFAA08AB09F0
:10432300124D0A12086DE96003024455E50AC2E51D
:10433300F50A9003B5E07051E50AA2E6404B740319
:10434300120AB9AC82AD83AA08AB09120B20E9703B
:104353003212462B8A0C8B0DA80CA90DE8FEE9FF3F
:10436300E8496025EE24020A0AEF122E1C601AEEB9
:104373002402FCEF3400FD7403120AB9AA82AB8352
:10438300121D20E50AD2E5F50A900348E0F50C90EA
:104393000368E0F50EA3E0F50F780E1208257D0102
:1043A3007C00900348E0F9AA0EAB0F120D2A7402A9
:1043B30012086DE9F8900348E004F0E86003024452
:1043C30055E50AA2E55004740E80027406C0E07439
:1043D30001120AB9D0E0125A848A0E8B0FAE0EAFC7
:1043E3000FEE4F606912447512448C88828983747E
:1043F30001F07478550AA3126A76E50C126A76A363
:10440300E508F0E509124464E4F0E50AA2E5500F7B
:104413007403120AB9AC82AD83E8240612445B8E9E
:10442300828F83A3A374FDF0A374FFF0E50B6015E3
:10443300902870E493F8E50BC3985009EE24131207
:104443005A57E50BF0EEFAEFFB120BC28006791018
:10445300800279C7740B8049FAE93400FB121D20EE
:104463002288828983A3A3A3A3124470221257EB49
:10447300A322EE2417125A687401F0120EE6EE24FA
:104483001A125A68EAF0A3EB22F0126A6A34001295
:10449300449622F58312449C22E0F8A3E0F92274A7
:1044A3000D12086D7F0802058D74F61203737A00EE
:1044B3007B10125F7260089003D47401F08029901E
:1044C300063EE064019010DB7006E0FC7901800495
:1044D300E0FC79037A007B00120C94902857124475
:1044E300EE7A007B101244FC023AC51244F222E435
:1044F30093FC740193FD227B009003C2E0F9121533
:10450300FA2274EC1203738A088B098C0C8D0D89C3
:104513000E7414120AB9124EE97416120AB9E0F5B0
:1045230010A3E0F511120F5EE960077AFF7BFF022B
:1045330046289010DAE06402600302461B7900AA61
:1045430008AB09120D78A90E120D6C8A128B13AEEB
:1045530012AF13EE4F70030246038E828F83A3A321
:10456300A3A3A3E064018E828F83A3A37069125176
:10457300A88E828F83A3A3A3A3A3A3E054186043AD
:1045830090286EE4938E828F83A3A3A3A3F0EA659E
:104593000C7003EB650D6014EA650A7003EB650BA1
:1045A300600AEA65107003EB6511701F781012083A
:1045B30025AC0AAD0BAA0CAB0D12105A74021208EB
:1045C3006D8008900367125F5CA3F074FE6A70034A
:1045D30074FF6B601D804EA3A3A3E0640360298E68
:1045E300828F83A3A3A3A3A3E0640470057AFE02CE
:1045F30045308E828F83A3A3A3A3A3E06402700834
:104603009003B4E06402701012462B8B0BEA450B47
:104613006006AA08AB09800DAA08AB0990034912EA
:104623003F9D121F17026552900375124D10121011
:104633001E2274F7120373EAFEEBFF120B74E97088
:104643000AEEFAEFFB120B80E96006EEFAEFFB804D
:10465300047AFE7BFF023A2674F01203738A0A8BF4
:104663000B8C0E8D0F8909750800120F5EE9790016
:1046730060030247D2AA0AAB0B120D78A909120DE7
:104683006C8A0C8B0DAE0CAF0DEE4F60198E828FC2
:1046930083A3A3A3A3A3E0640270559003B4E064CF
:1046A3000270030247D0AA0AAB0B90034F123F9D3F
:1046B300121F17120B868A0C8B0DA80CA90DE84943
:1046C30070030247D088828983A3A3A3A3A3E0A294
:1046D300E040030247D0750C01A2E150687901ACB8
:1046E3000AAD0BAA0EAB0F120CC4E970640247D0DB
:1046F3008E828F83A3A3A3A3A3E064037005750C29
:104703000280528E828F83A3A3A3A3A3E0640160DC
:10471300030247D09003751247E08E828F83124BBA
:10472300358A0C8B0DA80CA90DE84960D190286738
:10473300E493FA88828983E0C39A50C2A3E06003BA
:104743000247D080B988828983A3A3A3A3A3D2E11C
:10475300F0EE4F603A8E828F83A3A3A3A3A3A3E0BB
:104763005418602B7508018E828F83A3A312065CF5
:10477300750CFE750DFF780C1208257900AC0AAD97
:104783000BAA0EAB0F120D8A740412086D803E90B3
:104793000368E0650E7004A3E0650F701490286F42
:1047A300E493FCA909AA0AAB0B120C9475080180C7
:1047B3001CA90CAC0AAD0BAA0EAB0F120CC4E9700A
:1047C3000C750801A909AA0AAB0B120D1EA9080250
:1047D30044A7E50C2415F582E50D125A6B1254C853
:1047E3002274EA12037374F01208E78A0C8B0D8C9F
:1047F300088D097426120AB9E0F514A3E0F51575BE
:1048030012069003F5124D2E60239003751247E0B4
:10481300AA08AB091210488A108B11EA4511600DE2
:104823008A828B83A3E070057900024B1DE50C247B
:104833001DF50EE50D3400F50F850E82124D1AF5A8
:104843001388828983A3A3A3E0FA88828983A3A31D
:10485300A3A3E0F9EA2400FEE439FFAA08AB091296
:104863000D24850E82850F83124B58E029F50BE545
:104873000AA2E5500375120E7487550A701774184F
:10488300550A6418600FE50C2417F582E50D1261D3
:104893002A651260077901121D08808C530A78C3B8
:1048A300EE94F8EF94FF501D7900EEFAEFFB124BF4
:1048B30027601288828983A3A3A3A3A3A3E0541828
:1048C300600302482B78081208257D00124B4B1217
:1048D300086DE9F8740368700302482BE86003026B
:1048E30049967418550A7003024A4BE50AD2E0F55B
:1048F3000AA2E45004D2E1F50AA90A1251A1124B0B
:1049030027605388828983A3A3A3A3A3A3E0541896
:10491300604488828983A3A3A3A3A3E064017036C0
:10492300E510451160309003751247E08882898352
:10493300124B358A0E8B0FA80EA90FE84960178812
:10494300828983A3E0600F851082851183A3125CA3
:1049530079500302482BE50AF50E780E1208291246
:104963004B3E12086DE9702B7C007D008514828517
:10497300158374FFF0A3F0850C82850D83A3A3A395
:10498300A3A3A3A3A3E060031247D5A90B1251A1CC
:10499300121702851482851583E0F47003A3E0F4F3
:1049A30060399003B4E06402700302482B124EDABC
:1049B300E0FAA3E0123F99121F17EA65087003EBB0
:1049C3006509600302482BEEFAEF123F99121F1795
:1049D300851482851583EAF0A3EBF0780812082585
:1049E3007D01124B4B12086DA90AEEFAEFFB120D73
:1049F300788A088B09A808A909900368E0687003FE
:104A0300A3E0696003024B0EEEFAEFFB120B868AFA
:104A1300088B09A808A909E849606E88828983A3DD
:104A2300A3A3A3E06401600D88828983A3A3A3A346
:104A3300E064027054851882851983AC82AD83EEDD
:104A4300FAEFFB120B208055900361E0600FE50A3B
:104A5300F50E780E120829124B3E12086DE50AF581
:104A63000E780E12082979027CFE7DFFEEFAEFFB29
:104A7300124D0A12086DE960030249968514828576
:104A8300158374FFF0A30249DD120EE6EAFCEBFD89
:104A9300851882851983AA82AB83121D20850C8217
:104AA300850D83A3A3A3A3A3A3A3A3E06401700F12
:104AB3001247D57408120AB9AA82AB83121D2012B9
:104AC3004CE41258F04430F50878081208297401B0
:104AD300120AB98582088583097808120825740BA0
:104AE300120AB98582088583097808120825E51317
:104AF300F50878081208297900EEFCEFFD1251A1A0
:104B0300120CBE740612086D02482B124CE4125AA2
:104B13005A124B58E50BF0120EFE741012086D7FFB
:104B23000E02058D120D6C8A0E8B0FA80EA90FE8CD
:104B33004922A3A3125647121048227901AC08ADAB
:104B43000912563C124D0A22AC0BA91312563C1201
:104B53000D2A7402221258F8A3A3A3A32274F012FD
:104B6300037374F01208E78A0C8B0DECFAEDFB75F6
:104B73000F089003F5124D2E6014125C728A828B1B
:104B830083E58245836007A3E07003024CDF124C88
:104B9300E43400124D1AF50B88828983124CEDE040
:104BA300FBEC2400FEE43BFF88828983A3A3124C21
:104BB300EDA3A3E0FBECF508E43BF50988828983C8
:104BC300A3A3A3A3A3A3A3E0F50EE50AA2E45003C2
:104BD300750F10A2E550067408250FF50F748F5555
:104BE3000A700FE50C2417F582E50D12612A650F93
:104BF30060087901121D08024CDF530A707800E542
:104C03000AA2E45022124CE412612A2408FCA3E015
:104C13003400FD7408120AB9AA82AB83121D2078EE
:104C230008E50AC2E4F50AE50AA2E55028124CE4B5
:104C330012612A28F8A3E03400F9E82408FCE934D7
:104C430000FD851882851983AA82AB83121D20E596
:104C53000AC2E5F50AAC0EA90BEEFAEFFB120D3012
:104C6300E9F87403686075900368E06E7003A3E06D
:104C73006F605EE87054E50AF50F780F1208291289
:104C83004CFB12086DE97054780A1208297401125A
:104C93000AB985820C85830D780C120825740B12D2
:104CA3000AB985820C85830D780C120825E50BF56E
:104CB3000A780A120829A90EAC08AD09EEFAEFFB2F
:104CC300120CBE740612086D8012740468700D8095
:104CD300B7780A120829124CFB12086D74100244AB
:104CE300A4E50C241DF582E50D22A3A3A3E0FC8813
:104CF300828983A3A3A3A3227901124EE1125A6BE3
:104D0300124D10124D0A22120CE8740122E0FCA38A
:104D1300E0FDAA08AB0922F583124120A3E0F50ABE
:104D230088828983A3A3E0229003391256A32274B5
:104D3300E812037374F51208E7EAFEEBFF8C088DA3
:104D43000989147423120AB9E0F50F7424120AB9FD
:104D5300E0F512A3E0F5137426120AB9E0F516A3E1
:104D6300E0F5177428120AB9E0F50EA90F120D36F3
:104D73008A108B117401120AB97408F0E50EA2E4CB
:104D830050037410F0E50EA2E55004E02408F0850A
:104D93001882851983AA82AB83120F468A0C8B0D66
:104DA300EA450D7003024EC1EA2417F582EB124E59
:104DB300D3120EE6E50C241AF582E50D125A5A12A7
:104DC3003A367403120AB9AC82AD83AA10AB11123E
:104DD3000B20E9601D124ECB7403120AB9A882A9F5
:104DE30083E50C2418F582E50D125A5AE8F0A3E97D
:104DF3008024E50EA2E4501FE5106E7003E5116FE9
:104E03007015124ECBE50C2418F582E50D125A5A93
:104E1300E512F0A3E513F0124EDA124EE9850A8289
:104E2300F5837402F0A3E50E124EF1E50FF0EE8563
:104E33000A82850B83A3A3A3F0EF850A82850B83E4
:104E4300A3A3A3A3124EF1A3A3A3E508F0E5098549
:104E53000A82850B83A3A3A3A3A3A3F0AA10AB1178
:104E6300120D24E92514850A82850B83A3A3A3A32A
:104E7300A3A3A3F0750800E50EA2E45011AC12AD94
:104E830013E50A2408FAE50B12445D750808E50EDC
:104E9300A2E55014AC16AD17E50A2508F8E50B3466
:104EA30000F9E8240812445B850C82850D83A3A3D3
:104EB300E510F0A3E511F0AA0CAB0D120BC2740BB5
:104EC30012086D7F1002058DE50C2416F582E50DA1
:104ED300125A6B7401F022124EE1125A6B22E50C46
:104EE300126A71E50D22E0F50AA3E0F50B22F085C5
:104EF3000A82850B83A3A32274F21203738A088B9D
:104F030009ECFEEDFF890A7900124F8F7003A3E0CD
:104F130069700479018073750B01900368E065087B
:104F23007004A3E06509601F750B00780B12082954
:104F3300A90AEEFCEFFDAA08AB09120F9A7401123D
:104F4300086DE9F50B80417900EEFAEFFB120D6C69
:104F5300EA4B602B8A828B83A3A3A3A3A3A3E0546E
:104F630018601C7508FE7509FF78081208258A82E7
:104F73008B83A3A312065C12688612086D800979DD
:104F830001EEFAEFFB120C46A90B8014120D788A7E
:104F93000C8B0DA80CA90D900368E0682212086D14
:104FA3007F0602058D74F412037375081475090ED8
:104FB3007A1012658E8B0BEA450B70031242B79081
:104FC3000353E014F0700C90286DE493900353F0B6
:104FD300120D847E007F00806C850882850983A37F
:104FE300A3A3A3E06059F46056E5082404F582E521
:104FF30009125F567049850882850983A3A3A3A379
:10500300A3E0640370197902850882850983124736
:10501300E0850882850983A3A31251A8120CC485D5
:105023000882850983A3A3A3A3A3E0640160108579
:10503300088285098374FEF0A304125102E4F0127E
:10504300363312348590285B1266EA408C7E007FEB
:10505300008039120E8C8E088F09740378081209A8
:105063009C748C2508FC740F3509FD7AD07B0C12D7
:105073000E7AEA4B70DD8E088F09740378081209E3
:105083009C1250D0126931E4F0123633902863E455
:1050930093F8C3EE98EF9400501B8E088F097403A6
:1050A300780812099C1250D8E82407F582E9125FA8
:1050B3005670D680A17E007F00800A1250E3600202
:1050C30014F01236331266E740F1023C661250D8F0
:1050D3008882898322748C2508F8740F3509F92294
:1050E300EEF8EFF9E875F006A4F8AAF075F006E912
:1050F300A42AF9742C28F582740F39F583E022125F
:105103005109A3A3A322F0850882850983A3A322BF
:1051130074F712037374E11208E7ECFEEDFF7508F0
:1051230000EE4F60728A828B83E0241C125F871229
:105133004D2E60638A828B831251A885188285194C
:1051430083AC82AD83EA241BF582EB125E58EA241A
:105153001CF582EB1251A4120ECE740B120AB91273
:1051630051AC7003A3E069702E7402120AB9E064B3
:10517300017024741D120AB9123F9DE06401701777
:10518300741D120AB9123F9FA3A3E0F88E828F8386
:10519300E0687003750801A908741F023A23124ED0
:1051A300E13400F58312564722122DDAE0682274A7
:1051B300F4120373E97024790090034D123F9D129A
:1051C3001F178A0A8B0BAE0AAF0B74FE6E70037443
:1051D300FF6F701A90286AE4936013790190034D6E
:1051E300123F9D121F178A0A8B0BAE0AAF0B120FC9
:1051F3000A02379B74F612037374F31208E712144E
:10520300BC8A088B09AE08AF09900368E06E70038F
:10521300A3E06F60E9120EF2EA6E7002EB6F60DEDC
:10522300EEFAEFFB120F5EE970D4EE4F60D08518F3
:1052330082851983E4F004120AB9EEF0A3EF125247
:105243005AE970BA74FE6E700374FF6F60B0EEFAC1
:10525300EFFB740D023AC2123B47120B3822C08295
:10526300C083120F0A0239EE7F0A02058D74F2120F
:105273000373EAFEEBFF8C0A8D0B8908740E120A86
:10528300B9E0F50974FC6E700374FF6F7005790063
:10529300024FA37900120D788A0C8B0DAE0CAF0D63
:1052A300900368E06E7003A3E06F7006E509A2E661
:1052B30050DCA909126774706179007AFE7BFF12D2
:1052C300677470567418550970030253A7780079F0
:1052D300008003122FD490285B122FCB400302537C
:1052E300A7E8FAE9FBEA75F007A4FAACF075F00752
:1052F300EBA42CFB741A2AF582740E3BF583E0545D
:105303001870D0E875F007A4F8AAF075F007E9A4BF
:105313002AF9741428F8740E39F988828983A3A3AF
:10532300A3A3A3A3E05418600974185509700302DA
:10533300529188828983EEF0A3EFF074FE650A70C0
:105343000474FF650B60031254CE88828983A3A380
:10535300A3A3A3A3E509F0A2E0500D88828983A348
:10536300A3A3A3A3A3D2E2F074016508888289836F
:10537300A3A3A3A3A3703874011254F2E0541860DA
:105383002890286EE49388828983A3A3A3A312544D
:10539300BC1210488B0DEA450D6003025291780050
:1053A300790080397902025293900367E080D7E055
:1053B3006401700302529188828983A3A3A3A3A3E8
:1053C300A3E05418600790286EE49380049003666A
:1053D300E0124464E508F0025291122FD49028643D
:1053E300E493FAC3E89AE9940040030252917A00E5
:1053F3007B00804BEAFCEBFDEC75F007A4FCAEF000
:1054030075F007EDA42EFD74162CF582740E3DF590
:1054130083125A73E8FCE9FDEC75F017A4FC85F0E0
:105423000975F017EDA42509FD74A42CF582740CFD
:105433003DF583E06E7003A3E06F609E1235089024
:10544300285B12349540AD1244EEEC6A7002ED6BAA
:105453007088E875F017A4F8AAF075F017E9A42A84
:10546300F974A428FE740C39FF7C177D007900EED3
:10547300FAEFFB1214AA8E828F831254D490037511
:105483001254AEA3A3A3A3A3A3E8F0A3E91254B4B5
:105493007401F0EE240E125A5774011254DC1202F6
:1054A30022EE240D125A57E80253D9123A06A3A347
:1054B30022F0EE240F125A6822F01254C5AA0AAB46
:1054C3000B22900375E0FCA3E0FD2288828983A36D
:1054D300A3E50AF0A3E50BF022F01254E122902891
:1054E30067E4932401F8E43400F97A027B00221282
:1054F3004470A32274ED1203738A088B09890E1278
:105503005625400579050255F312174AAA08AB0937
:105513001256F79028591255F6650A7003E9650B80
:1055230070077AFE7BFF1256F7902859E41255FE56
:10553300E50A98E50B9940030255F11256026012F1
:10554300E50A75F006A4F875F006E50B12564D1240
:10555300154CE50E6018E50A75F006A4F8AAF07577
:10556300F006E50B125679701A79010255F3E50A34
:1055730075F006A4F8AAF075F006E50B12565AE486
:10558300F0A3F0E50A75F006A4F8AAF075F006E5B5
:105593000B12561AA312590688828983A3AA82ABD7
:1055A300831256688A828B83E0603F125602603A08
:1055B3008E108F117512007810120821E50EC33377
:1055C300FCE433FDE50A75F006A4F50AA8F075F0CE
:1055D30006E50BA428F50B7430250AF582740F3504
:1055E3000B1251A61234A612086D790080027907B6
:1055F30002678A12312DE8229004EE12611122E52E
:105603000A75F006A4F8AAF075F006E50B125655D4
:10561300F8A3E0F9E84922A42A1257AE88828983C5
:10562300A322ECFEEDFF902865E493F8E9C39822EA
:10563300F58312564712154C22E50C126A71E50DDB
:105643003400F583E0FAA3E0FB22125655FAA3E0F7
:10565300FB2212565AE022A42AF9743028F58274E8
:105663000F39F58322E50EF09010DC12567222E01A
:1056730088828983F0221257D2F50CE93400F50DA4
:10568300E50EC333FAE433FB121546850C82850D10
:1056930083EAF0A3EBF0850C82850D831256A322D7
:1056A30012449CE8492274F4120373ECFEEDFF7478
:1056B3000C120AB9123AB0880889091256F7AC0AD3
:1056C300AD0BECF8EDF99028591256FF5021E8750F
:1056D300F006A4F8AAF075F006E912561AE08E82D5
:1056E3008F83125712125708123ABC79008002793D
:1056F30004023C66120CFA8A0A8B0B2212349EC3F4
:10570300EC9AED9B22124498850882850983221224
:1057130057E72274F61203737E007F008028EEF8A9
:10572300EFF9E875F006A4F8ACF075F006E9A42CDF
:10573300F9742E28F582740F1263956A7003A3E03F
:105743006B60571236331266E740D31266E270027B
:10575300E96F704674FE6A700374FF6B703C7E00E1
:105763007F0080031236331266E7502E1250E37027
:10577300F3EEF8EFF9E875F006A4F81257A4125700
:10578300D960171257C0F8E91257B88882125633F6
:10579300850882850983E4F0A3F0EEFAEFFB023A71
:1057A300C575F006E91257AC22A42AF9742C28F81F
:1057B300740F39F9223400F98808890922EEF8EFC9
:1057C300F9E875F006A4F875F006E91257D222122B
:1057D30057ACE8240422A3A374FE1257E41256A381
:1057E30022F0A3041257EB22F088828983A3A3A398
:1057F300A32274F6120373EA241DF582EB1258F008
:10580300F9604BEA241DF582EB12612A2402FCA302
:10581300E03400FD12562940030258E37800802942
:105823008C828D83E0F508A3E0FFE5082400E43FC4
:10583300F509E833FEE433FF74742EF582740F3FE9
:10584300F5831259061258E608E8C39940D28A82B2
:105853008B83A3A3A3A3A3A3A3A3A31247E09003B0
:1058630068E06C7003A3E06D700F7C747D0F122DE4
:10587300431251A4120CEE8067EA2411F582EB1255
:10588300612A605CFC74FF2CF0750801780812082B
:105893002975087475090F7808120825E9F5087841
:1058A30008120829EA2412F582EB12612AF5087816
:1058B30008120829EA2415F582EB125A5A12065CDB
:1058C300ECF9122D431247DD8A828B83A3A3A3A392
:1058D300A3A3A3A3A31251A8120D06740712086D64
:1058E300023AC5EC24020C0CED3400FD22125A6B73
:1058F3001258F8E022E0F8A3E0F5838882A3228817
:10590300828983E508F0A3E509F02274EA120373A0
:1059130074FD1208E78A148B158C0E8D0F890D7494
:1059230019120AB9125A73741B120AB9E0F51174E9
:105933001C120AB9E0F50C741D120AB9124EE9746F
:105943001F120AB9E0F5106008E50CC33324048084
:10595300027402C0E07401120AB9D0E0125A848AB8
:10596300088B09EA45097003025A4F8A828B83A385
:10597300A3E514F0A3E51512657DE50EF0A3E50F8D
:10598300F0EA2413F582EB125A5AE50DF0EA2414D7
:10599300F582EB125A5AE511F0EA2417F582EB125D
:1059A300612A64017040120EEC8A0E8B0FA80EA9B7
:1059B3000F850882850983A3A3A3A3E0687003A3CB
:1059C300E0696022EE4F6011E508241AF582E509CB
:1059D300125A5AEEF0A3EF800CE5082417F582E57E
:1059E30009125A5AE4F0125A5E125A738E828F8346
:1059F3007405F0A3E5107004E50C80487401250CD0
:105A0300125A7D7A008028850A82850B83E0125A18
:105A130079850A82850B83A3E08E828F83F0E50A62
:105A23002402F50AE50B3400F50BA30EAF830AEA53
:105A3300C3950C40D2120EECEA125A79120EECEB1B
:105A43008E828F83F0AA08AB09120BC27403024B38
:105A53001FEE240CF582EF125A6B22122D54125AA8
:105A63006B22EE240BF582EF3400F583229003348E
:105A7300E0FEA3E0FF228E828F83F0A3AE82AF838A
:105A830022123B47120F4622C082C083E9C333FC74
:105A9300E433FDEA2CFAEB3DFBEA24FEF582EB341A
:105AA300FF1251A60239EE74F212037389098A0AAE
:105AB30012562540047900804075080080020508CD
:105AC300E508C39509502AE508C333F8E433F9EE32
:105AD30028F582EF39F583C082C083120EEC8A0C5D
:105AE3008B0DD083D082E0650C7004A3E0650D704C
:105AF300CDE50A650870BE7901024FA374F0120365
:105B03007374F31208E78A088B098C0A8D0B890CCE
:105B1300750D00120F5EE979006003025C01AA08AB
:105B2300AB09120D78A90C120D6C8A0E8B0FAE0EF9
